:100000000C9458000C9480000C9480000C94800098
:100010000C9480000C9480000C9480000C94800060
:100020000C9480000C9480000C9480000C94800050
:100030000C9480000C9480000C9480000C94800040
:100040000C9433060C9480000C94A3060C947D064B
:100050000C9480000C9480000C9480000C94800020
:100060000C94D5060C9480000000000025002800A8
:100070002B00040404040404040402020202020229
:10008000030303030303010204081020408001025C
:1000900004081020010204081020000000080002DB
:1000A0000100000304070000000000000000F40746
:1000B00011241FBECFEFD8E0DEBFCDBF11E0A0E01E
:1000C000B1E0EEEDF7E102C005900D92AC3CB10756
:1000D000D9F724E0ACECB1E001C01D92A236B20722
:1000E000E1F710E0C8E5D0E004C02197FE010E94CE
:1000F000E70BC735D107C9F70E9449080C94ED0BEF
:100100000C94000090E0FC01E656FF4F2491FC01A6
:10011000EA57FF4F3491FC01EE58FF4FE491EE2374
:10012000C9F0222339F0233001F1A8F4213019F16C
:10013000223029F1F0E0EE0FFF1FE859FF4FA591A3
:10014000B4918FB7F894EC91611126C030953E239D
:100150003C938FBF08952730A9F02830C9F0243090
:1001600049F7809180008F7D03C0809180008F7758
:1001700080938000DFCF84B58F7784BDDBCF84B5DB
:100180008F7DFBCF8091B0008F778093B000D2CF6E
:100190008091B0008F7DF9CF3E2BDACF3FB7F89436
:1001A0008091550390915603A0915703B091580345
:1001B00026B5A89B05C02F3F19F00196A11DB11DC2
:1001C0003FBFBA2FA92F982F8827BC01CD01620FFE
:1001D000711D811D911D42E0660F771F881F991FB9
:1001E0004A95D1F708958F929F92AF92BF92CF9286
:1001F000DF92EF92FF924B015C010E94CE006B01F7
:100200007C010E94CE006C197D098E099F09683E11
:10021000734081059105A8F321E0821A9108A10895
:10022000B10888EEC80E83E0D81EE11CF11C8114D1
:100230009104A104B10429F7FF90EF90DF90CF90D3
:10024000BF90AF909F908F90089508950895AF92BA
:10025000BF92CF92DF92EF92FF920F931F93CF93B3
:10026000DF936C017B018B01040F151FEB015E0115
:10027000AE18BF08C017D10759F06991D601ED91AA
:10028000FC910190F081E02DC6010995892B79F749
:10029000C501DF91CF911F910F91FF90EF90DF90FB
:1002A000CF90BF90AF900895FC01538D448D252FC2
:1002B00030E0842F90E0821B930B541710F0CF9600
:1002C000089501970895FC01918D828D981761F032
:1002D000A28DAE0FBF2FB11D5D968C91928D9F5F49
:1002E0009F73928F90E008958FEF9FEF0895FC0128
:1002F000918D828D981731F0828DE80FF11D858DDB
:1003000090E008958FEF9FEF0895FC01918D228D6D
:10031000892F90E0805C9F4F821B91098F739927F2
:10032000089589EA93E00E94850121E0892B09F470
:1003300020E0822F089580E090E0892B29F00E9430
:10034000910181110C9400000895FC01A48DA80F67
:10035000B92FB11DA35ABF4F2C91848D90E0019607
:100360008F739927848FA689B7892C93A089B18927
:100370008C91837080648C93938D848D981306C0C8
:100380000288F389E02D80818F7D80830895EF922C
:10039000FF920F931F93CF93DF93EC0181E0888F3F
:1003A0009B8D8C8D98131AC0E889F989808185FF0F
:1003B00015C09FB7F894EE89FF896083E889F989B1
:1003C00080818370806480839FBF81E090E0DF91B3
:1003D000CF911F910F91FF90EF900895F62E0B8D06
:1003E00010E00F5F1F4F0F731127E02E8C8D8E11C1
:1003F0000CC00FB607FCFACFE889F989808185FF28
:10040000F5CFCE010E94A501F1CFEB8DEC0FFD2FB2
:10041000F11DE35AFF4FF0829FB7F8940B8FEA89E2
:10042000FB8980818062CFCFCF93DF93EC01888DF1
:100430008823B9F0AA89BB89E889F9898C9185FD5F
:1004400003C0808186FD0DC00FB607FCF7CF8C91ED
:1004500085FFF2CF808185FFEDCFCE010E94A501FF
:10046000E9CFDF91CF91089520910D02260F332718
:10047000331F21323105ECF420917F03FC0190E021
:1004800080E0243069F082E00895A0910D0221916E
:10049000AC0143515E4FA40FB52FB11D2C930196B3
:1004A000861798F380910D02680F60930D0280E02B
:1004B000089581E0089510927F0381E080937E0388
:1004C0001092590361E082E10E94820061E083E1C1
:1004D0000E948200E9EBF0E080818E7F8083808142
:1004E0008D7F808388E48093B80085E48093BC008E
:1004F0000895CF93DF9391E09093EC018823B9F0B6
:10050000C091B800D091BA008091BC008A7B8093E2
:10051000BC0060E082E10E94820060E083E10E9412
:1005200082000E945B02D093BA00C093B800DF91B2
:10053000CF9108958F929F92AF92BF92CF92DF9208
:10054000EF92FF920F931F93CF93DF93D091A80365
:10055000D13208F0D7C0182FC091A7030E94CE0057
:100560006B017C0180917F0381116BC082E08093DD
:100570007F0310937E038FEF80937D0310927C03A3
:10058000D0937B03A7E8B3E0EBE5F3E080E0D8137A
:1005900091C010925A0380915A03CC0FC82BC0937C
:1005A0005A0380915903813009F088C01092590391
:1005B0000E94CE006B017C0180915A038093BB00A6
:1005C0008091810390918203A0918303B091840371
:1005D000892B8A2B8B2BA1F00E94CE0000918103E6
:1005E0001091820320918303309184036C197D095B
:1005F0008E099F09061717072807390708F442C014
:100600008091BC0083FDD8CF85EC8093BC000E9414
:10061000CE006B017C0180917F03823009F450C0D1
:1006200080917D038F3F09F46FC080917D038032FC
:1006300009F46CC080917D03803309F469C084E0C3
:1006400026C08091810390918203A0918303B09191
:100650008403892B8A2B8B2B09F484CF0E94CE0034
:100660008090810390908203A0908303B0908403D4
:100670006C197D098E099F0986169706A806B9068A
:1006800008F070CF809180030E94790285E010927B
:1006900086031092A80310928503DF91CF911F91DA
:1006A0000F91FF90EF90DF90CF90BF90AF909F9011
:1006B0008F9008959D9191938F5F69CF85EEA5CF1F
:1006C0008091810390918203A0918303B091840370
:1006D000892B8A2B8B2B09F49ECF0E94CE00009190
:1006E00081031091820320918303309184036C195C
:1006F0007D098E099F09061717072807390708F093
:100700008ACFC0CF81E0C3CF80E0C1CF82E0BFCF2E
:1007100083E0BDCFEF92FF920F931F93CF93DF93B0
:100720001F92CDB7DEB78C0169837A01DC01119687
:100730008D919C9112972C9131E0309385032093F9
:10074000A703109286031092A803DC01ED91FC919F
:100750000280F381E02D41E050E0BE016F5F7F4FEA
:100760000995F80181819281DC01ED91FC91019064
:10077000F081E02DD7016C91099581E00E949A02E9
:100780000F90DF91CF911F910F91FF90EF900895FF
:100790000895E091350280913402E81730F4F0E0DA
:1007A000E453FE4F808190E008958FEF9FEF08950E
:1007B00090913502809134022FEF3FEF981748F463
:1007C000E92FF0E0E453FE4F208130E09F5F9093EB
:1007D0003502C90108958091340290913502891B38
:1007E000990B0895CF92DF92EF92FF920F931F9390
:1007F000CF93DF937C01CB018A01209185032223D3
:1008000089F0EB016B01C40ED51ECC15DD0569F036
:100810006991D701ED91FC910190F081E02DC70124
:100820000995F3CF642F0E943402C801DF91CF9164
:100830001F910F91FF90EF90DF90CF900895CF938D
:10084000DF931F92CDB7DEB7698320918503222302
:10085000F9F02091A803203258F021E030E0FC01AB
:100860003383228390E080E00F90DF91CF91089551
:1008700080918603E82FF0E0E957FC4F998190833F
:100880008F5F809386038093A80381E090E0ECCF94
:1008900061E0CE0101960E943402F7CF90E080E043
:1008A0000895FC0101900020E9F73197AF01481B42
:1008B000590BBC0189EA93E00C9427018F929F9217
:1008C000AF92BF920F931F93CF93DF93CDB7DEB755
:1008D000A1970FB6F894DEBF0FBECDBF19A242306C
:1008E00008F44AE08E010F5D1F4F842E912CB12C2D
:1008F000A12CA50194010E94C50BE62FB901CA01E4
:10090000EA30F4F4E05DD801EE938D01232B242B23
:10091000252B79F790E080E0109719F0CD010E9427
:100920005104A1960FB6F894DEBF0FBECDBFDF9184
:10093000CF911F910F91BF90AF909F908F9008958E
:10094000E95CE1CFCF93DF930E945104EC0184E294
:1009500091E00E9451048C0F9D1FDF91CF9108956B
:10096000CF92DF92EF92FF92CF93DF9397FF1BC05E
:100970006B017C016DE289EA93E00E94C701EC0102
:1009800066277727CB016C197D098E099F094AE0FC
:100990000E945E048C0F9D1FDF91CF91FF90EF901E
:1009A000DF90CF9008954AE0DF91CF91FF90EF90D4
:1009B000DF90CF900C945E044F925F926F927F9283
:1009C0009F92AF92BF92CF92DF92EF92FF920F93DE
:1009D0001F93CF93DF931F92CDB7DEB76C0169836E
:1009E000942EA52E8901DC0111968D919C91129770
:1009F0002C9131E0309385032093A7031092860356
:100A00001092A803DC01ED91FC910280F381E02DAE
:100A100041E050E0BE016F5F7F4F099581E00E9489
:100A20009A02F82EB12C8111AEC0B02EF601E080F2
:100A30000E94CE002B013C0180917F03811165C093
:100A400081E080937F0380937E039FEF90937D03EB
:100A500010927C03900F90937B0380935A038091B4
:100A60005A03EE0CE82AE0925A0380915903813030
:100A700009F09BC0109259030E94CE002B013C014B
:100A800080915A038093BB008091810390918203EF
:100A9000A0918303B0918403892B8A2B8B2BA1F027
:100AA0000E94CE0020918103309182034091830304
:100AB0005091840364197509860997092617370729
:100AC0004807590708F442C08091BC0083FDD8CF85
:100AD00085EC8093BC000E94CE002B013C018091EC
:100AE0007F03813009F463C080917C038B1508F08B
:100AF00080C080917C03ABE5B3E0ECECF1E0F8164C
:100B000049F19D919193F394FACF80918103909153
:100B10008203A0918303B0918403892B8A2B8B2BB2
:100B200009F48ACF0E94CE00209181033091820384
:100B300040918303509184036419750986099709CC
:100B4000261737074807590708F076CF80918003AA
:100B50000E94790210923502F0923402E92CFA2CAC
:100B60000E0D1F1DD60111968D919C91DC01ED910A
:100B7000FC910284F385E02D0995F70181937F01B3
:100B8000E017F10779F78B2D0F90DF91CF911F912F
:100B90000F91FF90EF90DF90CF90BF90AF909F901C
:100BA0007F906F905F904F90089585EE92CF8091E7
:100BB000810390918203A0918303B0918403892BD8
:100BC0008A2B8B2B09F48BCF0E94CE0020918103BE
:100BD0003091820340918303509184036419750915
:100BE00086099709261737074807590708F077CF6E
:100BF000ADCF802F80CF85ED8093BC0080918103A5
:100C000090918203A0918303B09184030796A11D64
:100C1000B11D23E0B695A795979587952A95D1F7AD
:100C20002091BC0024FD03C010927F0308954091E1
:100C30008103509182036091830370918403452B5B
:100C4000462B472B69F30097A105B10541F02AE235
:100C50002A95F1F700C00197A109B109E1CF809170
:100C600080030C9479021F920F920FB60F921124F9
:100C70002F933F938F939F93AF93BF938091510393
:100C800090915203A0915303B091540330915003BB
:100C900023E0230F2D3758F50196A11DB11D209398
:100CA00050038093510390935203A0935303B09346
:100CB00054038091550390915603A0915703B0912E
:100CC00058030196A11DB11D8093550390935603BF
:100CD000A0935703B0935803BF91AF919F918F9109
:100CE0003F912F910F900FBE0F901F90189526E8FF
:100CF000230F0296A11DB11DD2CF1F920F920FB6E6
:100D00000F9211242F933F934F935F936F937F9391
:100D10008F939F93AF93BF93EF93FF9389EA93E0F1
:100D20000E94A501FF91EF91BF91AF919F918F918B
:100D30007F916F915F914F913F912F910F900FBED7
:100D40000F901F9018951F920F920FB60F921124BB
:100D50002F938F939F93EF93FF93E091B903F091BB
:100D6000BA038081E091BF03F091C00382FD1BC0F4
:100D700090818091C2038F5F8F732091C30382178C
:100D800041F0E091C203F0E0E755FC4F958F80936E
:100D9000C203FF91EF919F918F912F910F900FBE02
:100DA0000F901F9018958081F4CF1F920F920FB66D
:100DB0000F9211242F933F934F935F936F937F93E1
:100DC0008F939F93AF93BF93EF93FF938091B9005D
:100DD000887F803609F44AC0F0F5883209F4A7C04C
:100DE00018F5803109F49BC0B8F4882309F4F9C0E0
:100DF000883009F494C0FF91EF91BF91AF919F911A
:100E00008F917F916F915F914F913F912F910F90B3
:100E10000FBE0F901F901895883109F488C080325A
:100E200051F780937D0314C0803409F49DC040F4D1
:100E30008033B9F38833F9F680937D0385ECB0C035
:100E4000803509F485C0883509F496C0883499F650
:100E50000E94FB05D0CF883909F48CC038F588375B
:100E600029F050F4883611F0803729F683E080931A
:100E70007F0310922F0257C0883809F47BC0803955
:100E800019F0803809F0B7CF80912F02803208F036
:100E900071C0E0912F0281E08E0F80932F0280912C
:100EA000BB00F0E0E15FFD4F80833DC0803B39F047
:100EB000E0F4803A09F479C0883A09F09CCF84E0E4
:100EC00080937F0310920E0210920D02E091320285
:100ED000F0913302099580910D0281110FC081E0DC
:100EE00080930D021092ED0109C0803C09F4A6CF59
:100EF000883C09F4A3CF883B09F07DCFE0910E0236
:100F000081E08E0F80930E02F0E0E351FE4F80816E
:100F10008093BB0090910E0280910D0229C08091B8
:100F20005A038093BB0085EC8093BC0064CF909102
:100F30007C0380917B03981758F5E0917C0381E056
:100F40008E0F80937C03F0E0E55AFC4F8081E9CF5F
:100F5000E0917C0381E08E0F80937C038091BB0045
:100F6000F0E0E55AFC4F808390917C0380917B03F5
:100F70009817C8F285E8D8CFE0917C0381E08E0F06
:100F800080937C038091BB00F0E0E55AFC4F8083A6
:100F900080917E0381115CCF81E08093590384EAC4
:100FA0008093BC0010927F0326CF85EC8093BC0019
:100FB00010927F0380912F02803230F4E0912F0253
:100FC000F0E0E15FFD4F108260912F0270E0E09150
:100FD0003002F09131028FE092E0099510922F02D9
:100FE0000ACF10927D0334CFE9EAF3E01382128234
:100FF00048EE53E060E070E0448355836683778376
:1010000084E091E09183808385EC90E095878487EC
:1010100084EC90E09787868780EC90E0918B808BC2
:1010200081EC90E0938B828B82EC90E0958B848BAB
:1010300086EC90E0978B868B118E128E138E148E19
:10104000A6E4B4E013961C921E92129714964D9348
:101050005D936D937C93179786E191E011969C9335
:101060008E93E7E5F4E08FEF81831382148215827B
:101070001682178210861186128681E08083E2E54F
:10108000F4E080E18383148288E18083B283A183CA
:101090000895CF93DF93CDB7DEB7E4970FB6F894FA
:1010A000DEBF0FBECDBF789484B5826084BD84B5A9
:1010B000816084BD85B5826085BD85B5816085BD53
:1010C00080916E00816080936E001092810080910B
:1010D0008100826080938100809181008160809393
:1010E0008100809180008160809380008091B100B8
:1010F00084608093B1008091B00081608093B000E3
:1011000080917A00846080937A0080917A00826076
:1011100080937A0080917A00816080937A00809138
:101120007A00806880937A001092C100E091B90340
:10113000F091BA0382E08083E091B503F091B603A9
:101140001082E091B703F091B80380E180831092A0
:10115000C103E091BD03F091BE0386E08083E0917E
:10116000BB03F091BC03808180618083E091BB036D
:10117000F091BC03808188608083E091BB03F09193
:10118000BC03808180688083E091BB03F091BC0345
:1011900080818F7D808385E0E2E5F4E0DE019E962C
:1011A00001900D928A95E1F755E2E52E51E0F52E7A
:1011B00066E2C62E61E0D62EBB24B3948E010F5F8B
:1011C0001F4F109235021092340210928603109233
:1011D000A8030E945B02F0923302E0923202D092A6
:1011E0003102C09230021982BAAA21E030E0A8018F
:1011F0006FE0CE018E960E94DC048981833309F072
:10120000C5C087E291E00E94510421E030E0A801CE
:101210006FE0CE018E960E94DC04698170E090E060
:1012200080E040E10E945E0484E291E00E9451046B
:1012300080E390E09CAB8BAB80EC89ABAE014D5C66
:101240005F4F63E2CE018E960E948A038FE289830C
:10125000A80160E2CE018E960E948A0382E391E0AB
:101260000E94510468EE73E080E090E00E94F30079
:10127000180120E2220E311C809158048F5F8436C1
:1012800008F08FC08093580431E430937C00809143
:101290007A00806480937A0080917A0086FDFCCF8A
:1012A0008091780090917900E09158042E2F30E0E1
:1012B000D901AA0FBB1FA857BD4F8D939C93409196
:1012C0005704413009F0E3C0EE2309F46DC0E1504A
:1012D000893E934008F437C1F0E0EE0FFF1FE85756
:1012E000FD4F80819181449708F02DC18FB7F8940C
:1012F00040915103509152036091530370915403F4
:101300008FBF40935A0450935B0460935C047093C6
:101310005D0480915E0490915F04A0916004B0919F
:1013200061046A017B01C81AD90AEA0AFB0AD701DB
:10133000C60140935E0450935F0460936004709311
:101340006104E091870221E02E0F2093870234E0B0
:10135000E39FF0011124E15AFD4F80839183A28322
:10136000B3832A3010F0109287028091830290910B
:101370008402A0918502B0918602892B8A2B8B2B47
:10138000A9F48DE891E00E94A204DDC081E491E01F
:101390000E94A20468EE73E080E090E00E94F300F7
:1013A00010CF1092580470CFE3E692CFF80198E284
:1013B000C92E1192CA94E9F7EFE5F2E0D801419104
:1013C0005191619171914D935D936D937D9387E8F8
:1013D000E82E82E0F82EEE16FF0689F789E090E00D
:1013E000F80130E020E040815181628173812F5FFC
:1013F0003F4FC480D580E680F780C416D506E60648
:10140000F70640F4C082D182E282F382448355839E
:10141000668377833496281739072CF3019701F7F1
:101420008D8D9E8DAF8DB8A14D855E856F85788938
:10143000841B950BA60BB70B89379105A105B10548
:1014400008F09FCFFE013D9620E030E0A901819198
:101450009191A191B191280F391F4A1F5B1F2E1640
:101460003F06A9F760EE73E984E090E00E94C50BA7
:10147000222309F468C0622F70E090E080E04AE027
:101480000E945E0484E291E00E9451045CC0C901A4
:10149000A90170E060E0FA01EC59FF4F2617370709
:1014A00034F0DA011197FA01621773071CF0DA01C0
:1014B000AD59BF4FEE0FFF1FE857FD4FAA0FBB1FDF
:1014C000A857BD4FE080F180ED91FC91EE16FF062C
:1014D00048F46F5F7F4F4150510964307105D9F670
:1014E0001092590470E060E0FC01EC59FF4F2617A0
:1014F00037073CF0AC0141505109FC0162177307FA
:101500001CF0AC014D595F4FEE0FFF1FE857FD4F28
:10151000440F551FDA01A857BD4F40815181ED910D
:10152000FC91E417F50778F46F5F7F4F0197643003
:101530007105D1F680915904882309F47EC0FF24F7
:10154000F394F092590464E670E080E090E00E9429
:10155000F30085E0E2E5F4E0DE01999601900D925A
:101560008A95E1F722E030E0A80168EACE01899689
:101570000E94DC042CA53A813203200111245194ED
:1015800041945108052C000C6608770822E030E0F1
:10159000A8016AEACE0189960E94DC042CA53A8152
:1015A000320340011124919481949108092C000C7C
:1015B000AA08BB0822E030E0A8016CEACE018996B7
:1015C0000E94DC042CA53A81320360011124D194DD
:1015D000C194D1080D2C000CEE08FF0883EA91E0BD
:1015E0000E945104C301B2010E94B00484EB91E057
:1015F0000E945104C501B4010E94B0048EEB91E039
:101600000E945104C701B6010E94B00488EC91E029
:101610000E94A2046CE271E080E090E00E94F3007E
:1016200080E090E0892B09F427CE0E949101882365
:1016300009F422CE0E9400001FCE21E0209359041D
:101640008FB7F89440915103509152036091530326
:10165000709154038FBF40935A0450935B0460937E
:101660005C0470935D0480915E0490915F04A0918E
:101670006004B09161046A017B01C81AD90AEA0AC0
:10168000FB0AD701C60140935E0450935F04609348
:10169000600470936104E0915E022E0F20935E025D
:1016A00034E0E39FF0011124EA5CFD4F80839183D5
:1016B000A283B3832A3010F010925E0280915A0206
:1016C00090915B02A0915C02B0915D02892B8A2B04
:1016D0008B2B09F456CEF80188E2C82E1192CA94D9
:1016E000E9F7E6E3F2E0D8014191519161917191FE
:1016F0004D935D936D937D9322E0EE35F207A1F754
:1017000089E090E0F80130E020E040815181628181
:1017100073812F5F3F4FC480D580E680F780C41669
:10172000D506E606F70640F4C082D182E282F38253
:1017300044835583668377833496281739072CF3BF
:10174000019701F78D8D9E8DAF8DB8A14D855E857A
:101750006F857889841B950BA60BB70B873991058C
:10176000A105B10508F00DCEFE013D9620E030E068
:10177000A90181919191A191B191280F391F4A1F1F
:101780005B1FE215F305A9F76DCEA1E21A2EAA1B85
:10179000BB1BFD010DC0AA1FBB1FEE1FFF1FA21721
:1017A000B307E407F50720F0A21BB30BE40BF50B1E
:1017B000661F771F881F991F1A9469F760957095A7
:1017C000809590959B01AC01BD01CF010895EE0F6E
:0E17D000FF1F0590F491E02D0994F894FFCFCF
:1017DE0000000000C70127015401140285016301B6
:1017EE007701000000001F04F2034E04C803EB0350
:1017FE00D803C9030D0A0063686970206964203A32
:10180E002000416363656C65726174696F6E3A0A9C
:10181E0000496E697469616C697A6174696F6E20D2
:10182E006661696C65642C20706C656173652063FC
:10183E006865636B2074686520636F6E6E65637494
:10184E00696F6E20616E6420493243206164647258
:10185E006573732073657474696E6773005761697D
:10186E007420666F722076616C69642064617461A5
:10187E00202100416363656C65726174696F6E202F
:10188E00783A2000206D67092020793A2000206DDB
:0C189E00670920207A3A2000206D6700C6
:00000001FF
