:100000000C9435000C945D000C945D000C945D0024
:100010000C945D000C945D000C945D000C945D00EC
:100020000C945D000C945D000C945D000C945D00DC
:100030000C945D000C945D000C945D000C945D00CC
:100040000C94AE010C945D000C941E020C94F8010B
:100050000C945D000C945D000C945D000C945D00AC
:100060000C945D000C945D00500211241FBECFEF74
:10007000D8E0DEBFCDBF11E0A0E0B1E0E4E2FBE0FC
:1000800002C005900D92AC32B107D9F722E0ACE284
:10009000B1E001C01D92A73FB207E1F710E0C5E350
:1000A000D0E004C02197FE010E948A05C433D10725
:1000B000C9F70E948B020C9490050C9400003FB786
:1000C000F89480914B0290914C02A0914D02B09116
:1000D0004E0226B5A89B05C02F3F19F00196A11D21
:1000E000B11D3FBFBA2FA92F982F8827BC01CD0182
:1000F000620F711D811D911D42E0660F771F881FE1
:10010000991F4A95D1F70895AF92BF92CF92DF928F
:10011000EF92FF920F931F93CF93DF936C017B01BC
:100120008B01040F151FEB015E01AE18BF08C0174D
:10013000D10759F06991D601ED91FC910190F081C0
:10014000E02DC6010995892B79F7C501DF91CF9183
:100150001F910F91FF90EF90DF90CF90BF90AF90E5
:100160000895FC01538D448D252F30E0842F90E0BD
:10017000821B930B541710F0CF96089501970895A2
:10018000FC01918D828D981761F0A28DAE0FBF2F6B
:10019000B11D5D968C91928D9F5F9F73928F90E0C1
:1001A00008958FEF9FEF0895FC01918D828D981730
:1001B00031F0828DE80FF11D858D90E008958FEF6D
:1001C0009FEF0895FC01918D228D892F90E0805C36
:1001D0009F4F821B91098F73992708958FE492E0B6
:1001E0000E94E20021E0892B09F420E0822F08958B
:1001F00080E090E0892B29F00E94EE0081110C94A0
:1002000000000895FC01A48DA80FB92FB11DA35AB9
:10021000BF4F2C91848D90E001968F739927848F26
:10022000A689B7892C93A089B1898C918370806449
:100230008C93938D848D981306C00288F389E02DEA
:1002400080818F7D80830895EF92FF920F931F939B
:10025000CF93DF93EC0181E0888F9B8D8C8D981379
:100260001AC0E889F989808185FF15C09FB7F89485
:10027000EE89FF896083E889F989808183708064D1
:1002800080839FBF81E090E0DF91CF911F910F911C
:10029000FF90EF900895F62E0B8D10E00F5F1F4F2B
:1002A0000F731127E02E8C8D8E110CC00FB607FC3A
:1002B000FACFE889F989808185FFF5CFCE010E94C8
:1002C0000201F1CFEB8DEC0FFD2FF11DE35AFF4F33
:1002D000F0829FB7F8940B8FEA89FB898081806256
:1002E000CFCFCF93DF93EC01888D8823B9F0AA8913
:1002F000BB89E889F9898C9185FD03C0808186FDE1
:100300000DC00FB607FCF7CF8C9185FFF2CF80812F
:1003100085FFEDCFCE010E940201E9CFDF91CF91A1
:100320000895FC0101900020E9F73197AF01481BC7
:10033000590BBC018FE492E00C948400CF93DF93BF
:1003400082E191E00E949101EC0188E291E00E943B
:1003500091018C0F9D1FDF91CF9108951F920F92F5
:100360000FB60F9211242F933F938F939F93AF93C8
:10037000BF938091470290914802A0914902B091A9
:100380004A023091460223E0230F2D3758F501969B
:10039000A11DB11D2093460280934702909348020D
:1003A000A0934902B0934A0280914B0290914C0273
:1003B000A0914D02B0914E020196A11DB11D8093F6
:1003C0004B0290934C02A0934D02B0934E02BF910A
:1003D000AF919F918F913F912F910F900FBE0F90F2
:1003E0001F90189526E8230F0296A11DB11DD2CFAC
:1003F0001F920F920FB60F9211242F933F934F939A
:100400005F936F937F938F939F93AF93BF93EF937C
:10041000FF938FE492E00E940201FF91EF91BF9160
:10042000AF919F918F917F916F915F914F913F918C
:100430002F910F900FBE0F901F9018951F920F9243
:100440000FB60F9211242F938F939F93EF93FF93E7
:10045000E0915F02F09160028081E0916502F0918D
:10046000660282FD1BC09081809168028F5F8F734E
:1004700020916902821741F0E0916802F0E0E15BAF
:10048000FD4F958F80936802FF91EF919F918F911F
:100490002F910F900FBE0F901F9018958081F4CF71
:1004A000EFE4F2E01382128288EE93E0A0E0B0E085
:1004B00084839583A683B78384E091E091838083CE
:1004C00085EC90E09587848784EC90E09787868719
:1004D00080EC90E0918B808B81EC90E0938B828B11
:1004E00082EC90E0958B848B86EC90E0978B868BEA
:1004F000118E128E138E148EECEEF2E08FEF81834C
:100500001382148215821682178210861186128633
:1005100081E080830895CF93DF93CDB7DEB7A897AE
:100520000FB6F894DEBF0FBECDBF789484B582605D
:1005300084BD84B5816084BD85B5826085BD85B587
:10054000816085BD80916E00816080936E00109205
:100550008100809181008260809381008091810080
:100560008160809381008091800081608093800011
:100570008091B10084608093B1008091B00081606F
:100580008093B00080917A00846080937A0080919B
:100590007A00826080937A0080917A0081608093F3
:1005A0007A0080917A00806880937A001092C1006E
:1005B000E0915F02F091600282E08083E0915B0253
:1005C000F0915C021082E0915D02F0915E0280E1A8
:1005D000808310926702E0916302F091640286E0EA
:1005E0008083E0916102F09162028081806180836A
:1005F000E0916102F0916202808188608083E091E5
:100600006102F0916202808180688083E0916102E2
:10061000F091620280818F7D80838E010F5F1F4F7A
:100620001E0121E2220E311C50EEC52E53E9D52EBB
:1006300054E0E52EF12C8091ED028F5F843608F0B6
:1006400082C08093ED0231E430937C0080917A0087
:10065000806480937A0080917A0086FDFCCF80913F
:10066000780090917900E091ED022E2F30E0D901D1
:10067000AA0FBB1FA258BE4F8D939C934091EC02D2
:10068000413009F0EDC0EE2309F460C0E150893E2D
:10069000934008F440C1F0E0EE0FFF1FE258FE4F18
:1006A00080819181449708F036C18FB7F8944091CA
:1006B0004702509148026091490270914A028FBFEF
:1006C0004093EF025093F0026093F1027093F202B4
:1006D0008091F3029091F402A091F502B091F6029C
:1006E0004A015B01881A990AAA0ABB0AD501C4010A
:1006F0004093F3025093F4026093F5027093F60274
:10070000E0917D0121E02E0F20937D0134E0E39FF5
:10071000F0011124EB5AFE4F80839183A283B383AF
:100720002A3010F010927D018091790190917A0128
:10073000A0917B01B0917C01892B8A2B8B2B41F4FA
:100740000E949E01E8C01092ED027DCFE3E69FCFAC
:10075000F80198E2892E11928A94E9F7E5E5F1E033
:10076000D80141915191619171914D935D936D9338
:100770007D938DE7A82E81E0B82EAE16BF0689F7CF
:1007800089E090E0F80130E020E0419151916191E1
:1007900071912F5F3F4F408051806280738044167B
:1007A00055066606770658F4DF0114974D925D9260
:1007B0006D927C92139740835183628373832817D1
:1007C00039071CF30197F1F68D8D9E8DAF8DB8A181
:1007D0004D855E856F857889841B950BA60BB70BBD
:1007E00089379105A105B10508F0AACFFE013D9614
:1007F00020E030E0A90181919191A191B191280F60
:10080000391F4A1F5B1F2E163F06A9F7C701B60105
:100810000E946805222309F47EC030E050E040E0E9
:1008200019A24E0181E2880E911CCA01B9012AE089
:1008300030E040E050E00E946805605DF4016293A2
:100840004F01211531054105510579F7309719F010
:10085000CF010E94910188E291E00E9491015BC06A
:10086000C901A901B0E0A0E0FA01EC59FF4F2A1735
:100870003B073CF0BA0161507109FA01A217B307B6
:100880001CF0BA016D597F4FEE0FFF1FE258FE4F6B
:10089000660F771F62587E4FA080B180FB01608198
:1008A0007181A616B70640F4119641505109A43043
:1008B000B105D1F61092EE0270E060E0FC01EC5957
:1008C000FF4F261737073CF0AC0141505109FC019E
:1008D000621773071CF0AC014D595F4FEE0FFF1FFD
:1008E000E258FE4F440F551FDA01A258BE4F408117
:1008F0005181ED91FC91E417F50768F46F5F7F4F2C
:10090000019764307105D1F68091EE028823A1F140
:10091000F1E0F093EE020E945F004B015C0184E184
:10092000482E512C612C712C0E945F0068197909A6
:100930008A099B09683E734081059105A8F3F1E09F
:100940004F1A51086108710828EE820E23E0921EAA
:10095000A11CB11C411451046104710429F780E009
:1009600090E0892B09F467CE0E94EE00882309F4F9
:1009700062CE0E9400005FCE882483948092EE02B3
:100980008FB7F89440914702509148026091490214
:1009900070914A028FBF4093EF025093F002609330
:1009A000F1027093F2028091F3029091F402A0910F
:1009B000F502B091F6024A015B01881A990AAA0A67
:1009C000BB0AD501C4014093F3025093F402609333
:1009D000F5027093F602E091540121E02E0F20936E
:1009E000540134E0E39FF0011124E45DFE4F808365
:1009F0009183A283B3832A3010F010925401809126
:100A0000500190915101A0915201B0915301892B55
:100A10008A2B8B2B09F494CEF80198E2892E11923F
:100A20008A94E9F7ECE2F1E0D801419151916191AA
:100A300071914D935D936D937D9321E0E435F207C1
:100A4000A1F789E090E0F80130E020E04191519178
:100A5000619171912F5F3F4F408051806280738020
:100A6000441655066606770658F4DF0114974D9232
:100A70005D926D927C92139740835183628373835E
:100A8000281739071CF30197F1F68D8D9E8DAF8DD8
:100A9000B8A14D855E856F857889841B950BA60B63
:100AA000B70B87399105A105B10508F049CEFE01C4
:100AB0003D9620E030E0A90181919191A191B19101
:100AC000280F391F4A1F5B1FE215F305A9F79ECEB9
:100AD000A1E21A2EAA1BBB1BFD010DC0AA1FBB1F42
:100AE000EE1FFF1FA217B307E407F50720F0A21BB4
:100AF000B30BE40BF50B661F771F881F991F1A9421
:100B000069F760957095809590959B01AC01BD014A
:100B1000CF010895EE0FFF1F0590F491E02D099489
:040B2000F894FFCF77
:100B24000000000024018400B1007101E200C00053
:100B3400D4005761697420666F722076616C6964B1
:0C0B440020646174612021000D0A000093
:00000001FF
