:100000000C945D000C9485000C9485000C94850084
:100010000C9485000C9485000C9485000C9485004C
:100020000C9485000C9485000C9485000C9485003C
:100030000C9485000C9485000C9485000C9485002C
:100040000C9439080C9485000C94A9080C9483082E
:100050000C9485000C9485000C9485000C9485000C
:100060000C94DB080C94850000000000230026009F
:10007000290000000000250028002B0004040404CF
:100080000404040402020202020203030303030342
:10009000010204081020408001020408102001021F
:1000A00004081020000000080002010000030407FB
:1000B0000000000000000000FA0911241FBECFEF6D
:1000C000D8E0DEBFCDBF24E0AAE0B2E001C01D92BF
:1000D000A73AB207E1F712E0A0E0B1E0EAEFF6E2FA
:1000E00002C005900D92AA30B107D9F710E0CDE516
:1000F000D0E004C02197FE010E94D410CC35D10776
:10010000C9F70E94530A0C947B130C9400000895C5
:100110000895833081F028F4813099F08230A9F07D
:1001200008958730A9F08830C9F08430B1F4809107
:1001300080008F7D03C0809180008F778093800046
:10014000089584B58F7784BD089584B58F7DFBCFE6
:100150008091B0008F778093B00008958091B000B7
:100160008F7DF9CF1F93CF93DF93282F30E0F901D4
:10017000EC55FF4F8491F901E057FF4FD491F901FD
:10018000E458FF4FC491CC23A9F0162F81110E948F
:100190008900EC2FF0E0EE0FFF1FEE58FF4FA59106
:1001A000B4918FB7F894EC91111108C0D095DE236B
:1001B000DC938FBFDF91CF911F910895DE2BF8CF95
:1001C0008E50806480937C0080917A00806480935C
:1001D0007A0080917A0086FDFCCF80917800909122
:1001E000790008953FB7F89480916A0390916B036A
:1001F000A0916C03B0916D0326B5A89B05C02F3F5D
:1002000019F00196A11DB11D3FBFBA2FA92F982F3C
:100210008827BC01CD01620F711D811D911D42E037
:10022000660F771F881F991F4A95D1F708958F92FF
:100230009F92AF92BF92CF92DF92EF92FF924B01CB
:100240005C010E94F2006B017C010E94F2006C19BB
:100250007D098E099F09683E734081059105A8F3C9
:1002600021E0821A9108A108B10888EEC80E83E047
:10027000D81EE11CF11C81149104A104B10429F7DA
:10028000FF90EF90DF90CF90BF90AF909F908F90B6
:100290000895AF92BF92CF92DF92EF92FF920F93A9
:1002A0001F93CF93DF936C017B018B01040F151F0C
:1002B000EB015E01AE18BF08C017D10759F0699174
:1002C000D601ED91FC910190F081E02DC6010995D8
:1002D000892B79F7C501DF91CF911F910F91FF9085
:1002E000EF90DF90CF90BF90AF900895FC01538DB9
:1002F000448D252F30E0842F90E0821B930B541700
:1003000010F0CF96089501970895FC01918D828D8C
:10031000981761F0A28DAE0FBF2FB11D5D968C9125
:10032000928D9F5F9F73928F90E008958FEF9FEF64
:1003300008952FB7F89480916E0390916F03A09168
:100340007003B09171032FBF8093F0039093F1037A
:10035000A093F203B093F30388EE93E00E9485012B
:1003600097FF26C02FB7F89480916E0390916F038A
:10037000A0917003B09171032FBF4091F003509191
:10038000F1036091F2037091F303841B950BA60BAC
:10039000B70B4091EC035091ED036091EE03709127
:1003A000EF0384179507A607B707B0F28FEF9FEF0B
:1003B0000895FC01918D828D981731F0828DE80FA0
:1003C000F11D858D90E008958FEF9FEF0895FC015A
:1003D000918D228D892F90E0805C9F4F821B910927
:1003E0008F739927089588EE93E00E94E70121E03A
:1003F000892B09F420E0822F089580E090E0892B7A
:1004000029F00E94F30181110C9400000895FC0171
:10041000A48DA80FB92FB11DA35ABF4F2C91848D65
:1004200090E001968F739927848FA689B7892C93C2
:10043000A089B1898C91837080648C93938D848D15
:10044000981306C00288F389E02D80818F7D808318
:100450000895EF92FF920F931F93CF93DF93EC01D8
:1004600081E0888F9B8D8C8D98131AC0E889F9895B
:10047000808185FF15C09FB7F894EE89FF8960835E
:10048000E889F98980818370806480839FBF81E0DF
:1004900090E0DF91CF911F910F91FF90EF90089521
:1004A000F62E0B8D10E00F5F1F4F0F731127E02EFC
:1004B0008C8D8E110CC00FB607FCFACFE889F98934
:1004C000808185FFF5CFCE010E940702F1CFEB8D31
:1004D000EC0FFD2FF11DE35AFF4FF0829FB7F89408
:1004E0000B8FEA89FB8980818062CFCFCF93DF9326
:1004F000EC01888D8823B9F0AA89BB89E889F9893C
:100500008C9185FD03C0808186FD0DC00FB607FC70
:10051000F7CF8C9185FFF2CF808185FFEDCFCE01A3
:100520000E940702E9CFDF91CF91089520912B021D
:10053000260F3327331F21323105ECF42091BE03FF
:10054000FC0190E080E0243069F082E00895A09101
:100550002B022191AC01455F5D4FA40FB52FB11D5A
:100560002C930196861798F380912B02680F609365
:100570002B0280E0089581E008951092BE0381E08F
:100580008093BD031092980361E082E10E94B20063
:1005900061E083E10E94B200E9EBF0E080818E7FB0
:1005A000808380818D7F808388E48093B80085E498
:1005B0008093BC00089510927703109276031092F6
:1005C000C5031092E7030E94BD0287E890E0909374
:1005D00075038093740388E890E09093730380938D
:1005E00072030895CF93DF9391E090930A028823DA
:1005F000B9F0C091B800D091BA008091BC008A7B5C
:100600008093BC0060E082E10E94B20060E083E180
:100610000E94B2000E94BD02D093BA00C093B800FD
:10062000DF91CF9108958F929F92AF92BF92CF9218
:10063000DF92EF92FF920F931F93CF93DF93D091AE
:10064000E703D13208F0D7C0182FC091E6030E940B
:10065000F2006B017C018091BE0381116BC082E0CE
:100660008093BE031093BD038FEF8093BC03109261
:10067000BB03D093BA03A6ECB3E0EAE9F3E080E071
:10068000D81391C01092990380919903CC0FC82B75
:10069000C093990380919803813009F088C010922B
:1006A00098030E94F2006B017C0180919903809372
:1006B000BB008091C0039091C103A091C203B0918F
:1006C000C303892B8A2B8B2BA1F00E94F20000918F
:1006D000C0031091C1032091C2033091C3036C1970
:1006E0007D098E099F09061717072807390708F49F
:1006F00042C08091BC0083FDD8CF85EC8093BC00C4
:100700000E94F2006B017C018091BE03823009F4EB
:1007100050C08091BC038F3F09F46FC08091BC032F
:10072000803209F46CC08091BC03803309F469C045
:1007300084E026C08091C0039091C103A091C203C0
:10074000B091C303892B8A2B8B2B09F484CF0E9491
:10075000F2008090C0039090C103A090C203B090BB
:10076000C3036C197D098E099F0986169706A80692
:10077000B90608F070CF8091BF030E94F20285E0B5
:100780001092C5031092E7031092C403DF91CF913A
:100790001F910F91FF90EF90DF90CF90BF90AF909F
:1007A0009F908F9008959D9191938F5F69CF85EE73
:1007B000A5CF8091C0039091C103A091C203B091D5
:1007C000C303892B8A2B8B2B09F49ECF0E94F20046
:1007D0000091C0031091C1032091C2033091C30363
:1007E0006C197D098E099F09061717072807390715
:1007F00008F08ACFC0CF81E0C3CF80E0C1CF82E0D4
:10080000BFCF83E0BDCFEF92FF920F931F93CF93A3
:10081000DF931F92CDB7DEB78C0169837A01DC01CB
:1008200011968D919C9112972C9131E03093C403D5
:100830002093E6031092C5031092E703DC01ED91CB
:10084000FC910280F381E02D41E050E0BE016F5F3A
:100850007F4F0995F80181819281DC01ED91FC9136
:100860000190F081E02DD7016C91099581E00E9403
:1008700013030F90DF91CF911F910F91FF90EF9095
:1008800008951F93CF93DF93EA01122FDC01119695
:100890008D919C91DC01ED91FC910280F381E02D22
:1008A0000995C817D90729F4812F0E94130391E0F5
:1008B000811190E0892FDF91CF911F910895CF93FF
:1008C000DF93EC018B818823A1F0888191E09093E4
:1008D000C4038093E6031092C5031092E70381E0FE
:1008E0000E94130391E0811190E0892FDF91CF9155
:1008F00008950E94DB0281E08B83CE010E945F0499
:10090000982F8111E2CFF1CF8F929F92AF92BF9239
:10091000CF92DF92EF92FF920F931F93CF93DF93CB
:10092000D82FC62F142F613208F09CC00E94F2000D
:100930006B017C018091BE0381116FC081E08093C7
:10094000BE031093BD039FEF9093BC031092BB03B3
:100950009C0F9093BA038093990380919903DD0FC4
:10096000D82BD093990380919803813009F07CC0F3
:10097000109298030E94F2006B017C018091990310
:100980008093BB008091C0039091C103A091C203EA
:10099000B091C303892B8A2B8B2BA1F00E94F2000C
:1009A0000091C0031091C1032091C2033091C30391
:1009B0006C197D098E099F09061717072807390743
:1009C00008F44CC08091BC0083FDD8CF85EC8093A7
:1009D000BC000E94F2006B017C018091BE0381305B
:1009E00009F444C08091BB038C1710F4C091BB0381
:1009F000EAE9F3E0A8E7B3E080E08C1359C08C2F5C
:100A0000DF91CF911F910F91FF90EF90DF90CF90EA
:100A1000BF90AF909F908F9008958091C003909168
:100A2000C103A091C203B091C303892B8A2B8B2BE6
:100A300009F480CF0E94F2008090C0039090C1031F
:100A4000A090C203B090C3036C197D098E099F0961
:100A500086169706A806B90608F06CCF8091BF03EA
:100A60000E94F202C0E0CBCF85EEB1CF8091C003EF
:100A70009091C103A091C203B091C303892B8A2B2B
:100A80008B2B09F4AACF0E94F2000091C0031091B1
:100A9000C1032091C2033091C3036C197D098E09F3
:100AA0009F09061717072807390708F096CFD6CFF2
:100AB00091919D938F5FA1CF0895E09177038091ED
:100AC0007603E81730F4F0E0E858FC4F808190E0BE
:100AD00008958FEF9FEF08959091770380917603AB
:100AE0002FEF3FEF981748F4E92FF0E0E858FC4F5C
:100AF000208130E09F5F90937703C9010895809132
:100B0000760390917703891B990B0895CF92DF921A
:100B1000EF92FF920F931F93CF93DF937C01CB0152
:100B20008A012091C403222389F0EB016B01C40EDA
:100B3000D51ECC15DD0569F06991D701ED91FC91C9
:100B40000190F081E02DC7010995F3CF642F0E9439
:100B50009602C801DF91CF911F910F91FF90EF9006
:100B6000DF90CF900895CF93DF931F92CDB7DEB77C
:100B700069832091C4032223F9F02091E7032032F6
:100B800058F021E030E0FC013383228390E080E0E4
:100B90000F90DF91CF9108958091C503E82FF0E089
:100BA000EA53FC4F998190838F5F8093C5038093B4
:100BB000E70381E090E0ECCF61E0CE0101960E9476
:100BC0009602F7CF90E080E00895FC0101900020AC
:100BD000E9F73197AF01481B590BBC0188EE93E050
:100BE0000C9449018F929F92AF92BF920F931F93E3
:100BF000CF93DF93CDB7DEB7A1970FB6F894DEBFE2
:100C00000FBECDBF19A2423008F44AE08E010F5D3D
:100C10001F4F842E912CB12CA12CA50194010E9470
:100C2000B210E62FB901CA01EA30F4F4E05DD80150
:100C3000EE938D01232B242B252B79F790E080E078
:100C4000109719F0CD010E94E505A1960FB6F89412
:100C5000DEBF0FBECDBFDF91CF911F910F91BF902F
:100C6000AF909F908F900895E95CE1CFCF93DF9391
:100C7000D0E0C0E0009719F00E94E505EC018AE29F
:100C800091E00E94E5058C0F9D1FDF91CF910895A3
:100C9000CF93DF9300D0CDB7DEB789836A8380918D
:100CA000850490918604FC01248135812230310530
:100CB00090F0208131E03093C4032093E60310923A
:100CC000C5031092E70321E042E050E0BE016F5FF0
:100CD0007F4F0E9441040F900F90DF91CF910895B4
:100CE0009F92AF92BF92CF92DF92EF92FF920F93BB
:100CF0001F93CF93DF931F92CDB7DEB76C0169834B
:100D0000942EA52E7901DC0111968D919C9112975C
:100D10002C9131E03093C4032093E6031092C50375
:100D20001092E703DC01ED91FC910280F381E02D4C
:100D300041E050E0BE016F5F7F4F099581E00E9466
:100D40001303B12C811120C0BE2C41E06E2DF601A1
:100D500080810E9484041092770380937603092D8A
:100D60001A2DE00EF11ED60111968D919C91DC0199
:100D7000ED91FC910284F385E02D0995F8018193B2
:100D80008F01EE16FF0679F78B2D0F90DF91CF9133
:100D90001F910F91FF90EF90DF90CF90BF90AF9099
:100DA0009F900895AF92BF92CF92DF92EF92FF9201
:100DB0001F93CF93DF93DC0114962D913C911597EF
:100DC000232B09F449C07A01EC01888191E09093CA
:100DD000C4038093E6031092C5031092E70320E05A
:100DE00041E050E0CD010E944104182F8823A1F179
:100DF000CC80DD8061E0C114D10409F460E0A62E4E
:100E0000B12C462F88810E9484041092770380932E
:100E100076038A151B0401F590E080E08A159B0596
:100E200070F489819A81DC01ED91FC910284F38553
:100E3000E02D0995F701808381E090E0EFCFCD2888
:100E4000B9F2812FDF91CF911F91FF90EF90DF904A
:100E5000CF90BF90AF90089510E0F3CFCF92DF9284
:100E6000EF92FF92CF93DF936B017C01F7FE1FC0DF
:100E70006DE288EE93E00E942902EC016627772755
:100E8000CB016C197D098E099F094AE00E94F20589
:100E9000C80FD91F8AE291E00E94E5058C0F9D1FC3
:100EA000DF91CF91FF90EF90DF90CF9008954AE0CF
:100EB0000E94F205EC01EECF0F931F93CF93DF93C7
:100EC0001F92CDB7DEB7809185049091860400977C
:100ED00011F00E941C1286E090E00E9480118C01AB
:100EE0008AE5F801808387E894E092838183138206
:100EF00080E290E0958384831093860400938504B8
:100F00000E94DB0281E0F8018383C8010E945F0434
:100F1000182F882309F446C060E081E00E9448064B
:100F200060E082E00E94480661E084E00E9448069A
:100F300060E085E00E94480660E08DE00E9448067F
:100F400060E08EE00E94480660E08FE00E94480664
:100F500060E080E10E94480664E683E10E94480662
:100F60008AE18983AE014F5F5F4FBA0180918504AA
:100F7000909186040E94D20669816F778AE10E946F
:100F800048068DE18983AE014F5F5F4FBA018091C2
:100F90008504909186040E94D206698160628DE189
:100FA0000E944806812F0F90DF91CF911F910F91E2
:100FB00008950F931F93CF93DF93EC01888199815C
:100FC000009759F02A813B812617370730F081E0DE
:100FD000DF91CF911F910F9108958B016F5F7F4F2C
:100FE0000E94A512009759F0998388831B830A8376
:100FF0002C813D81232B59F7FC011082E8CF80E042
:10100000E7CF85ED8093BC008091C0039091C10330
:10101000A091C203B091C3030796A11DB11D23E0A7
:10102000B695A795979587952A95D1F72091BC00FD
:1010300024FD03C01092BE0308954091C003509157
:10104000C1036091C2037091C303452B462B472B0C
:1010500069F30097A105B10541F02AE22A95F1F75D
:1010600000C00197A109B109E1CF8091BF030C94A1
:10107000F2021F920F920FB60F9211242F933F93FB
:101080008F939F93AF93BF9380916E0390916F0363
:10109000A0917003B09171033091690323E0230F95
:1010A0002D3758F50196A11DB11D2093690380933A
:1010B0006E0390936F03A0937003B09371038091BC
:1010C0006A0390916B03A0916C03B0916D0301963C
:1010D000A11DB11D80936A0390936B03A0936C03D1
:1010E000B0936D03BF91AF919F918F913F912F91DD
:1010F0000F900FBE0F901F90189526E8230F0296B1
:10110000A11DB11DD2CF1F920F920FB60F921124C5
:101110002F933F934F935F936F937F938F939F93FF
:10112000AF93BF93EF93FF9388EE93E00E94070283
:10113000FF91EF91BF91AF919F918F917F916F91AF
:101140005F914F913F912F910F900FBE0F901F9085
:1011500018951F920F920FB60F9211242F938F9311
:101160009F93EF93FF93E091F803F091F90380814F
:10117000E091FE03F091FF0382FD1BC090818091FE
:1011800001048F5F8F7320910204821741F0E09178
:101190000104F0E0E851FC4F958F80930104FF912A
:1011A000EF919F918F912F910F900FBE0F901F90F5
:1011B00018958081F4CF1F920F920FB60F921124D1
:1011C0002F933F934F935F936F937F938F939F934F
:1011D000AF93BF93EF93FF938091B900887F8036E0
:1011E00009F44AC0F0F5883209F4A7C018F5803137
:1011F00009F49BC0B8F4882309F4F9C0883009F4D5
:1012000094C0FF91EF91BF91AF919F918F917F918A
:101210006F915F914F913F912F910F900FBE0F9063
:101220001F901895883109F488C0803251F7809357
:10123000BC0314C0803409F49DC040F48033B9F37A
:101240008833F9F68093BC0385ECB0C0803509F48F
:1012500085C0883509F496C0883499F60E94010843
:10126000D0CF883909F48CC038F5883729F050F48C
:10127000883611F0803729F683E08093BE03109200
:101280004D0257C0883809F47BC0803919F0803886
:1012900009F0B7CF80914D02803208F071C0E09123
:1012A0004D0281E08E0F80934D028091BB00F0E0F3
:1012B000E35DFD4F80833DC0803B39F0E0F4803A30
:1012C00009F479C0883A09F09CCF84E08093BE038A
:1012D00010922C0210922B02E0917403F09175038E
:1012E000099580912B0281110FC081E080932B0220
:1012F00010920B0209C0803C09F4A6CF883C09F487
:10130000A3CF883B09F07DCFE0912C0281E08E0FC6
:1013100080932C02F0E0E55FFD4F80818093BB005D
:1013200090912C0280912B0229C080919903809387
:10133000BB0085EC8093BC0064CF9091BB0380918F
:10134000BA03981758F5E091BB0381E08E0F8093A4
:10135000BB03F0E0E656FC4F8081E9CFE091BB0390
:1013600081E08E0F8093BB038091BB00F0E0E656D6
:10137000FC4F80839091BB038091BA039817C8F209
:1013800085E8D8CFE091BB0381E08E0F8093BB034B
:101390008091BB00F0E0E656FC4F80838091BD0356
:1013A00081115CCF81E08093980384EA8093BC0034
:1013B0001092BE0326CF85EC8093BC001092BE0332
:1013C00080914D02803230F4E0914D02F0E0E35D17
:1013D000FD4F108260914D0270E0E0917203F09138
:1013E00073038DE292E0099510924D020ACF10929C
:1013F000BC0334CFE8EEF3E01382128248EE53E0F0
:1014000060E070E044835583668377838AE091E0EF
:101410009183808385EC90E09587848784EC90E0CD
:101420009787868780EC90E0918B808B81EC90E0B1
:10143000938B828B82EC90E0958B848B86EC90E092
:10144000978B868B118E128E138E148EA7E8B4E0C4
:1014500013961C921E92129714964D935D936D9362
:101460007C9317978CE191E011969C938E93E8E919
:10147000F4E08FEF81831382148215821682178223
:1014800010861186128681E08083E3E9F4E080E132
:101490008383148288E18083B283A18310928604BF
:1014A000109285040895CF93DF93CDB7DEB7EA9706
:1014B0000FB6F894DEBF0FBECDBF789484B58260BE
:1014C00084BD84B5816084BD85B5826085BD85B5E8
:1014D000816085BD80916E00816080936E00109266
:1014E00081008091810082608093810080918100E1
:1014F0008160809381008091800081608093800072
:101500008091B10084608093B1008091B0008160CF
:101510008093B00080917A00846080937A008091FB
:101520007A00826080937A0080917A008160809353
:101530007A0080917A00806880937A001092C100CE
:10154000E091F803F091F90382E08083E091F403E5
:10155000F091F5031082E091F603F091F70380E13A
:10156000808310920004E091FC03F091FD0386E07B
:101570008083E091FA03F091FB0380818061808396
:10158000E091FA03F091FB03808188608083E09111
:10159000FA03F091FB03808180688083E091FA0375
:1015A000F091FB0380818F7D808385E0E3E9F4E0A7
:1015B000DE019E9601900D928A95E1F711E09E0161
:1015C0002F5F3F4F79010E94DB0219821AAB21E0A5
:1015D00030E0A7016FE0CE018E960E9470068981EF
:1015E000833309F050C18DE291E00E94E50521E0CE
:1015F00030E0A7016FE0CE018E960E9470066981EF
:1016000070E090E080E040E10E94F2058AE291E023
:101610000E94E50580E290E09EAB8DAB80E489AB53
:10162000AE014B5C5F4F63E2CE018E960E940304D5
:101630008FE28983A70160E2CE018E960E940304A7
:1016400088E391E00E94E50568EE73E080E090E0B9
:101650000E9417010E945C07882309F41FC10E94A1
:101660005C0765E081E00E944806370130E2630EC6
:10167000711C809199048F5F843608F01AC18093A1
:10168000990480E10E94E000E09199042E2F30E05F
:10169000D901AA0FBB1FA056BD4F8D939C934091BB
:1016A0009804413009F0C6C1EE2309F405C1E150A8
:1016B000893E934008F002C130E020E08BEC91E0DD
:1016C000222321F03327C90180549E4F0E94360601
:1016D00088EE93E00E94760285E0E3E9F4E0DE0123
:1016E000999601900D928A95E1F722E030E0A701EA
:1016F00068EACE0189960E9470062CA53A813203D1
:10170000C00111249195819591099C01990F440B79
:10171000550B2FAB38AF49AF5AAF22E030E0A701ED
:101720006AEACE0189960E9470062CA53A8132039E
:1017300010011124319421943108032C000C440829
:10174000550822E030E0A7016CEACE0189960E949C
:1017500070062CA53A8132034001112491948194A2
:101760009108092C000CAA08BB086CE271E080E02B
:1017700090E00E9417018AED91E00E94E5056FA9B3
:1017800078AD89AD9AAD0E942E0782EE91E00E945D
:10179000E505C201B1010E942E078AEE91E00E9488
:1017A000E505C501B4010E942E078EE00E94E0000D
:1017B000BC0190E080E00E94590F20E030E04AEF49
:1017C0005EE30E94BA0F4B015C0182EF91E00E9440
:1017D000E505A5019401C501B4010E947B11882390
:1017E00009F430C288EF91E00E94E5058AE291E0B9
:1017F0000E94E50588EE93E00E94760288EE93E071
:101800000E94E701181619060CF0D5C21A82198237
:101810001C821B821E821D8270E060E0C7010E9454
:10182000D90729813A81811189C22115310519F021
:10183000C9010E941C121A8219821E821D821C82FA
:101840001B820E9499010D811E8197FD7FC28A3003
:10185000910509F47BC28BAB1CAA0F5F1F4FB80127
:10186000C7010E94D907882361F329813A818D81BC
:101870009E81BE016D5C7F4F820F931F0E94741387
:101880001E830D83DECF87E491E00E94360668EE6A
:1018900073E080E090E00E94170195CE83E991E02B
:1018A0000E9436066AE070E080E090E00E94170136
:1018B000F9CF10929904E5CEE3E6FACEF0E0EE0F10
:1018C000FF1FE056FD4F80819181449708F0F4CED0
:1018D0008FB7F89440916E0350916F03609170033D
:1018E000709171038FBF40939B0450939C0460934D
:1018F0009D0470939E0480919F049091A004A091F8
:10190000A104B091A2048A019B01081B190B2A0BA8
:101910003B0BD901C80140939F045093A0046093EE
:10192000A1047093A204E0919F0221E02E0F209366
:101930009F0214E0E19FF0011124E958FD4F8083DC
:101940009183A283B3832A3010F010929F0280917A
:101950009B0290919C02A0919D02B0919E02892BC6
:101960008A2B8B2B29F48AEA91E00E943606A4CEBA
:10197000F70108E211920A95E9F7E7E7F2E0D701EB
:1019800041915191619171914D935D936D937D93CF
:101990002FE932E02E173F0799F789E090E0F70131
:1019A00030E020E041915191619171912F5F3F4F63
:1019B00080809180A280B38084169506A606B70623
:1019C00058F4DF0114978D929D92AD92BC921397BB
:1019D0004083518362837383281739071CF301976F
:1019E000F1F68D8D9E8DAF8DB8A14D855E856F858D
:1019F0007889841B950BA60BB70B89379105A10538
:101A0000B10508F0B0CFFE013D9620E030E0A9011D
:101A100081919191A191B191280F391F4A1F5B1FAC
:101A20006E167F06A9F760EE73E984E090E00E94ED
:101A3000B21044CEC901A90110E000E0BA016C590E
:101A40007F4F2017310734F0DA011197BA010217DE
:101A500013071CF0DA01AD59BF4F660F771FFB016A
:101A6000E056FD4FAA0FBB1FA056BD4F0190F0815D
:101A7000E02D6D917C91E617F70748F40F5F1F4F3B
:101A80004150510904301105C9F610929A0470E0D2
:101A900060E0FC01EC59FF4F261737073CF0AC0122
:101AA00041505109FC01621773071CF0AC014D59FC
:101AB0005F4FEE0FFF1FE056FD4F440F551FDA0139
:101AC000A056BD4F40815181ED91FC91E417F5077F
:101AD00008F0F2CD6F5F7F4F019764307105C9F652
:101AE00080919A04882321F031E030939A04E4CD68
:101AF00041E040939A048FB7F89440916E0350915F
:101B00006F0360917003709171038FBF40939B04CA
:101B100050939C0460939D0470939E0480919F0455
:101B20009091A004A091A104B091A2048A019B010C
:101B3000081B190B2A0B3B0BD901C80140939F04CA
:101B40005093A0046093A1047093A204E0917602E4
:101B500021E02E0F2093760214E0E19FF001112482
:101B6000E25BFD4F80839183A283B3832A3010F020
:101B7000109276028091720290917302A091740289
:101B8000B0917502892B8A2B8B2B09F4ECCEF701CF
:101B900008E211920A95E9F7EEE4F2E0D7014191EB
:101BA0005191619171914D935D936D937D9312E08D
:101BB000E637F107A1F789E090E0F70130E020E097
:101BC00041915191619171912F5F3F4F8080918040
:101BD000A280B38084169506A606B70658F4DF01E6
:101BE00014978D929D92AD92BC921397408351832E
:101BF00062837383281739071CF30197F1F68D8DE3
:101C00009E8DAF8DB8A14D855E856F857889841BCB
:101C1000950BA60BB70B87399105A105B10508F007
:101C2000A2CEFE013D9620E030E0A9018191919184
:101C3000A191B191280F391F4A1F5B1FE615F705C7
:101C4000A9F7F1CE2FEF3FEF4FE75FE7C501B401F2
:101C50000E947B1181110DC02FEF3FEF4FE75FE72F
:101C6000C501B4010E94540F18161CF48CEF91E0CA
:101C7000BBCD2FEF3FEF4FE75FE4C501B4010E94FA
:101C8000761118161CF480E092E0AECD2FEF3FEFF6
:101C90004FE75FECC501B4010E94540F87FDF3CFFD
:101CA0002AE037ED43EA5BE3C501B4010E94DB1093
:101CB0001B012C010E9447114B015C010E94590F2E
:101CC0009B01AC01C201B1010E94DA101B012C0181
:101CD0004AE0C501B4010E94F2056EE288EE93E08D
:101CE0000E94290220E030E040E251E4C201B1014B
:101CF0000E94BA0F1B012C010E9447114B01B12C0D
:101D0000A12C4AE0C501B4010E94F205C501B4014D
:101D10000E94590F9B01AC01C201B1010E94DA106F
:101D200020E030E040E251E40E94BA0F0E944711E7
:101D300090E080E04AE00E94F20558CD1E821D82AC
:101D40006CE271E0C9010E9474137BCDA980BA8056
:101D5000A114B10429F065010115110509F043C072
:101D60004D815E8169817A8188EE93E00E9449010C
:101D70008AE291E00E94E5058D819E81892BA9F080
:101D800064E072E089819A810E946B13892B69F467
:101D900060E882E00E944806F1E0F093680368EE94
:101DA00073E080E090E00E94170189819A8100979A
:101DB00011F00E941C12E3EBF0E08491EFE9F0E0F7
:101DC0000491EBE8F0E01491111143C08091680395
:101DD000882309F44DC060E082E00E94480610921A
:101DE000680346C0640146013FEF831A930AF60177
:101DF0008081082E000C990B0E944B0F892B91F7C4
:101E0000015011090A0D1B1DF8018081082E000CDC
:101E1000990B0E944B0F892B31F00C151D0518F002
:101E200001501109F1CFA8014F5F5F4F4C195D09B7
:101E30005E834D83AC14BD0420F4B601C5010E943D
:101E40006213E981FA818D819E81E80FF91F10826A
:101E500087CF81110E948900E12FF0E0EE0FFF1F74
:101E6000E859FF4FA591B4918C91082309F4AECFA6
:101E700064E170E080E090E00E94170100E010E073
:101E8000012B09F4F6CB0E94F301882309F4F1CB6E
:101E90000E940000EECB91110C942710803219F0B3
:101EA00089508550C8F708950E94960F08F481E084
:101EB0000895E89409C097FB3EF49095809570953D
:101EC00061957F4F8F4F9F4F9923A9F0F92F96E986
:101ED000BB279395F695879577956795B795F111FB
:101EE000F8CFFAF4BB0F11F460FF1BC06F5F7F4F98
:101EF0008F4F9F4F16C0882311F096E911C07723AA
:101F000021F09EE8872F762F05C0662371F096E8B2
:101F1000862F70E060E02AF09A95660F771F881F81
:101F2000DAF7880F9695879597F90895990F000825
:101F3000550FAA0BE0E8FEEF16161706E807F9079B
:101F4000C0F012161306E407F50798F0621B730B36
:101F5000840B950B39F40A2661F0232B242B252BB7
:101F600021F408950A2609F4A140A6958FEF811D5A
:101F7000811D08950E94CD0F0C9441100E943310D2
:101F800038F00E943A1020F0952311F00C942A109A
:101F90000C94301011240C9475100E94521070F3A0
:101FA000959FC1F3950F50E0551F629FF001729FFE
:101FB000BB27F00DB11D639FAA27F00DB11DAA1F0D
:101FC000649F6627B00DA11D661F829F2227B00D5A
:101FD000A11D621F739FB00DA11D621F839FA00DE5
:101FE000611D221F749F3327A00D611D231F849F35
:101FF000600D211D822F762F6A2F11249F5750408C
:102000009AF0F1F088234AF0EE0FFF1FBB1F661F06
:10201000771F881F91505040A9F79E3F510580F0CF
:102020000C942A100C9475105F3FE4F3983ED4F39F
:10203000869577956795B795F795E7959F5FC1F773
:10204000FE2B880F911D9695879597F908959927EE
:102050008827089597F99F6780E870E060E0089509
:102060009FEF80EC089500240A94161617061806B0
:102070000906089500240A9412161306140605068C
:102080000895092E0394000C11F4882352F0BB0F1D
:1020900040F4BF2B11F460FF04C06F5F7F4F8F4F80
:1020A0009F4F089557FD9058440F551F59F05F3FBB
:1020B00071F04795880F97FB991F61F09F3F79F06A
:1020C00087950895121613061406551FF2CF4695EC
:1020D000F1DF08C0161617061806991FF1CF86956E
:1020E0007105610508940895E894BB276627772752
:1020F000CB0197F908952F923F924F925F926F9282
:102100007F928F929F92AF92BF92CF92DF92EF9287
:10211000FF920F931F93CF93DF93CDB7DEB7CA1B08
:10212000DB0B0FB6F894DEBF0FBECDBF09942A8833
:10213000398848885F846E847D848C849B84AA84DB
:10214000B984C884DF80EE80FD800C811B81AA8168
:10215000B981CE0FD11D0FB6F894DEBF0FBECDBF33
:10216000ED010895A1E21A2EAA1BBB1BFD010DC0B3
:10217000AA1FBB1FEE1FFF1FA217B307E407F50737
:1021800020F0A21BB30BE40BF50B661F771F881F13
:10219000991F1A9469F760957095809590959B01A9
:1021A000AC01BD01CF010895EE0FFF1F0590F49122
:1021B000E02D09945058BB27AA270E94F2100C94D6
:1021C00041100E94331038F00E943A1020F039F488
:1021D0009F3F19F426F40C9430100EF4E095E7FBC1
:1021E0000C942A10E92F0E94521058F3BA17620774
:1021F00073078407950720F079F4A6F50C94741002
:102200000EF4E0950B2EBA2FA02D0B01B901900111
:102210000C01CA01A0011124FF27591B99F0593F55
:1022200050F4503E68F11A16F040A22F232F342F9D
:102230004427585FF3CF469537952795A795F040EB
:102240005395C9F77EF41F16BA0B620B730B840B00
:10225000BAF09150A1F0FF0FBB1F661F771F881FB8
:10226000C2F70EC0BA0F621F731F841F48F4879510
:1022700077956795B795F7959E3F08F0B0CF939502
:10228000880F08F09927EE0F9795879508950E947B
:102290005A1088F09F5798F0B92F9927B751B0F08E
:1022A000E1F0660F771F881F991F1AF0BA95C9F7DA
:1022B00014C0B13091F00E947410B1E008950C94F4
:1022C0007410672F782F8827B85F39F0B93FCCF3A7
:1022D000869577956795B395D9F73EF49095809557
:1022E000709561957F4F8F4F9F4F08950E94960F75
:1022F00008F48FEF08950E94960F880B990B0895AC
:102300000F931F93CF93DF938230910510F482E0F7
:1023100090E0E091A504F091A60430E020E0B0E068
:10232000A0E0309799F42115310509F44AC0281B23
:10233000390B24303105D8F58A819B8161157105EF
:1023400089F1FB0193838283FE0111C04081518199
:102350000281138148175907E0F04817590799F48B
:10236000109761F012960C93129713961C93329665
:10237000CF01DF91CF911F910F9108950093A50494
:102380001093A604F4CF2115310551F042175307DD
:1023900038F0A901DB019A01BD01DF01F801C1CFCD
:1023A000EF01F9CF9093A6048093A504CDCFFE0151
:1023B000E20FF31F819391932250310939832883CF
:1023C000D7CF2091A3043091A404232B41F4209172
:1023D0000201309103013093A4042093A3042091BF
:1023E0000001309101012115310541F42DB73EB7AF
:1023F0004091040150910501241B350BE091A30489
:10240000F091A404E217F307A0F42E1B3F0B28174A
:10241000390778F0AC014E5F5F4F2417350748F05D
:102420004E0F5F1F5093A4044093A3048193919394
:102430009FCFF0E0E0E09CCFCF93DF930097E9F0EF
:10244000FC01329713821282A091A504B091A604D8
:10245000ED0130E020E01097A1F420813181820F5E
:10246000931F2091A3043091A4042817390709F081
:1024700061C0F093A404E093A304DF91CF91089589
:10248000EA01CE17DF07E8F54A815B819E0141151D
:102490005105B1F7E901FB83EA8349915991C40FD2
:1024A000D51FEC17FD0761F4808191810296840F9E
:1024B000951FE90199838883828193819B838A8315
:1024C000F0E0E0E012968D919C9113970097B9F59A
:1024D0002D913C911197CD010296820F931F20916F
:1024E000A3043091A4042817390739F6309751F521
:1024F0001092A6041092A504B093A404A093A30480
:10250000BCCFD383C28340815181840F951FC817EC
:10251000D90761F44E5F5F4F88819981480F591F39
:10252000518340838A819B81938382832115310566
:1025300009F0B0CFF093A604E093A5049ECFFD016F
:10254000DC01C0CF13821282D7CFB0E0A0E0EBEA6B
:10255000F2E10C947D108C01009751F4CB010E94A4
:1025600080118C01C801CDB7DEB7E0E10C94991061
:10257000FC01E60FF71F9C0122503109E217F30717
:1025800008F49DC0D901CD91DC911197C617D707EA
:1025900098F0C530D10530F3CE0104978617970720
:1025A00008F3C61BD70B2297C193D1936D937C93ED
:1025B000CF010E941C12D6CF5B01AC1ABD0A4C01A0
:1025C0008C0E9D1EA091A504B091A604512C412C07
:1025D000F12CE12C109731F58091A3049091A40483
:1025E0008815990509F05CC04616570608F058C0D2
:1025F0008091000190910101009741F48DB79EB741
:102600004091040150910501841B950BE817F907CF
:1026100008F055C0F093A404E093A304F90171837A
:102620006083A0CF8D919C91119712966C90129718
:1026300013967C901397A815B90559F56C0142E0E3
:10264000C40ED11CCA14DB0420F1AC014A195B0989
:10265000DA011296159780F062827382518340836B
:10266000D9016D937C93E114F10471F0D7011396B5
:10267000FC93EE93129776CF22968C0F9D1FF90153
:1026800091838083F301EFCFF093A604E093A50438
:1026900069CF4816590608F42C017D01D3019ACF61
:1026A000CB010E9480117C01009749F0AE01B80176
:1026B0000E946213C8010E941C12870153CF10E0D0
:1026C00000E050CFFB01DC0102C001900D924150AF
:1026D0005040D8F70895FB01DC018D9101908019DD
:1026E0000110D9F3990B0895FB01DC0101900D92C3
:0A26F0000020E1F70895F894FFCFF1
:1026FA000000A704800000000000290249017601B9
:10270A007602E7018501D90100000000B3058605BC
:10271A00E2055C057F056C055D050D0A00636869C5
:10272A0070206964203A2000416363656C657261B8
:10273A0074696F6E3A0A00496E697469616C697AE4
:10274A006174696F6E206661696C65642C20706CB7
:10275A006561736520636865636B207468652063CF
:10276A006F6E6E656374696F6E20616E64204932A4
:10277A004320616464726573732073657474696E4F
:10278A00677300436F756C64206E6F742066696EA0
:10279A0064204452563236303500576169742066D7
:1027AA006F722076616C6964206461746120210013
:1027BA004865617274526174653A00486561727461
:1027CA00526174653A4E554C4C00416363656C58CE
:1027DA003A00416363656C593A00416363656C5A18
:1027EA003A0054656D703A006E616E00696E66005B
:0A27FA006F766600535441525400FC
:00000001FF
