:100000000C945D000C9485000C9485000C94850084
:100010000C9485000C9485000C9485000C9485004C
:100020000C9485000C9485000C9485000C9485003C
:100030000C9485000C9485000C9485000C9485002C
:100040000C9435080C9485000C94A5080C947F083A
:100050000C9485000C9485000C9485000C9485000C
:100060000C94D7080C9485000000000023002600A3
:10007000290000000000250028002B0004040404CF
:100080000404040402020202020203030303030342
:10009000010204081020408001020408102001021F
:1000A00004081020000000080002010000030407FB
:1000B0000000000000000000F60911241FBECFEF71
:1000C000D8E0DEBFCDBF24E0AAE0B2E001C01D92BF
:1000D000AA3AB207E1F712E0A0E0B1E0E4EAF7E201
:1000E00002C005900D92AA30B107D9F710E0CDE516
:1000F000D0E004C02197FE010E942911CC35D10720
:10010000C9F70E944F0A0C94D0130C940000089574
:100110000895833081F028F4813099F08230A9F07D
:1001200008958730A9F08830C9F08430B1F4809107
:1001300080008F7D03C0809180008F778093800046
:10014000089584B58F7784BD089584B58F7DFBCFE6
:100150008091B0008F778093B00008958091B000B7
:100160008F7DF9CF1F93CF93DF93282F30E0F901D4
:10017000EC55FF4F8491F901E057FF4FD491F901FD
:10018000E458FF4FC491CC23A9F0162F81110E948F
:100190008900EC2FF0E0EE0FFF1FEE58FF4FA59106
:1001A000B4918FB7F894EC91111108C0D095DE236B
:1001B000DC938FBFDF91CF911F910895DE2BF8CF95
:1001C0008E50806480937C0080917A00806480935C
:1001D0007A0080917A0086FDFCCF80917800909122
:1001E000790008953FB7F89480916D0390916E0364
:1001F000A0916F03B091700326B5A89B05C02F3F57
:1002000019F00196A11DB11D3FBFBA2FA92F982F3C
:100210008827BC01CD01620F711D811D911D42E037
:10022000660F771F881F991F4A95D1F708958F92FF
:100230009F92AF92BF92CF92DF92EF92FF924B01CB
:100240005C010E94F2006B017C010E94F2006C19BB
:100250007D098E099F09683E734081059105A8F3C9
:1002600021E0821A9108A108B10888EEC80E83E047
:10027000D81EE11CF11C81149104A104B10429F7DA
:10028000FF90EF90DF90CF90BF90AF909F908F90B6
:100290000895AF92BF92CF92DF92EF92FF920F93A9
:1002A0001F93CF93DF936C017B018B01040F151F0C
:1002B000EB015E01AE18BF08C017D10759F0699174
:1002C000D601ED91FC910190F081E02DC6010995D8
:1002D000892B79F7C501DF91CF911F910F91FF9085
:1002E000EF90DF90CF90BF90AF900895FC01538DB9
:1002F000448D252F30E0842F90E0821B930B541700
:1003000010F0CF96089501970895FC01918D828D8C
:10031000981761F0A28DAE0FBF2FB11D5D968C9125
:10032000928D9F5F9F73928F90E008958FEF9FEF64
:1003300008952FB7F8948091710390917203A09162
:100340007303B09174032FBF8093F3039093F4036E
:10035000A093F503B093F6038BEE93E00E94850122
:1003600097FF26C02FB7F894809171039091720384
:10037000A0917303B09174032FBF4091F303509188
:10038000F4036091F5037091F603841B950BA60BA3
:10039000B70B4091EF035091F0036091F10370911E
:1003A000F20384179507A607B707B0F28FEF9FEF08
:1003B0000895FC01918D828D981731F0828DE80FA0
:1003C000F11D858D90E008958FEF9FEF0895FC015A
:1003D000918D228D892F90E0805C9F4F821B910927
:1003E0008F73992708958BEE93E00E94E70121E037
:1003F000892B09F420E0822F089580E090E0892B7A
:1004000029F00E94F30181110C9400000895FC0171
:10041000A48DA80FB92FB11DA35ABF4F2C91848D65
:1004200090E001968F739927848FA689B7892C93C2
:10043000A089B1898C91837080648C93938D848D15
:10044000981306C00288F389E02D80818F7D808318
:100450000895EF92FF920F931F93CF93DF93EC01D8
:1004600081E0888F9B8D8C8D98131AC0E889F9895B
:10047000808185FF15C09FB7F894EE89FF8960835E
:10048000E889F98980818370806480839FBF81E0DF
:1004900090E0DF91CF911F910F91FF90EF90089521
:1004A000F62E0B8D10E00F5F1F4F0F731127E02EFC
:1004B0008C8D8E110CC00FB607FCFACFE889F98934
:1004C000808185FFF5CFCE010E940702F1CFEB8D31
:1004D000EC0FFD2FF11DE35AFF4FF0829FB7F89408
:1004E0000B8FEA89FB8980818062CFCFCF93DF9326
:1004F000EC01888D8823B9F0AA89BB89E889F9893C
:100500008C9185FD03C0808186FD0DC00FB607FC70
:10051000F7CF8C9185FFF2CF808185FFEDCFCE01A3
:100520000E940702E9CFDF91CF91089520912B021D
:10053000260F3327331F21323105ECF42091C103FC
:10054000FC0190E080E0243069F082E00895A09101
:100550002B022191AC01455F5D4FA40FB52FB11D5A
:100560002C930196861798F380912B02680F609365
:100570002B0280E0089581E008951092C10381E08C
:100580008093C00310929B0361E082E10E94B2005D
:1005900061E083E10E94B200E9EBF0E080818E7FB0
:1005A000808380818D7F808388E48093B80085E498
:1005B0008093BC00089510927A03109279031092F0
:1005C000C8031092EA030E94BD0287E890E090936E
:1005D00078038093770388E890E090937603809384
:1005E00075030895CF93DF9391E090930A028823D7
:1005F000B9F0C091B800D091BA008091BC008A7B5C
:100600008093BC0060E082E10E94B20060E083E180
:100610000E94B2000E94BD02D093BA00C093B800FD
:10062000DF91CF9108958F929F92AF92BF92CF9218
:10063000DF92EF92FF920F931F93CF93DF93D091AE
:10064000EA03D13208F0D7C0182FC091E9030E9405
:10065000F2006B017C018091C10381116BC082E0CB
:100660008093C1031093C0038FEF8093BF03109258
:10067000BE03D093BD03A9ECB3E0EDE9F3E080E065
:10068000D81391C010929C0380919C03CC0FC82B6F
:10069000C0939C0380919B03813009F088C0109225
:1006A0009B030E94F2006B017C0180919C0380936C
:1006B000BB008091C3039091C403A091C503B09186
:1006C000C603892B8A2B8B2BA1F00E94F20000918C
:1006D000C3031091C4032091C5033091C6036C1964
:1006E0007D098E099F09061717072807390708F49F
:1006F00042C08091BC0083FDD8CF85EC8093BC00C4
:100700000E94F2006B017C018091C103823009F4E8
:1007100050C08091BF038F3F09F46FC08091BF0329
:10072000803209F46CC08091BF03803309F469C042
:1007300084E026C08091C3039091C403A091C503B7
:10074000B091C603892B8A2B8B2B09F484CF0E948E
:10075000F2008090C3039090C403A090C503B090B2
:10076000C6036C197D098E099F0986169706A8068F
:10077000B90608F070CF8091C2030E94F20285E0B2
:100780001092C8031092EA031092C703DF91CF9131
:100790001F910F91FF90EF90DF90CF90BF90AF909F
:1007A0009F908F9008959D9191938F5F69CF85EE73
:1007B000A5CF8091C3039091C403A091C503B091CC
:1007C000C603892B8A2B8B2B09F49ECF0E94F20043
:1007D0000091C3031091C4032091C5033091C60357
:1007E0006C197D098E099F09061717072807390715
:1007F00008F08ACFC0CF81E0C3CF80E0C1CF82E0D4
:10080000BFCF83E0BDCFEF92FF920F931F93CF93A3
:10081000DF931F92CDB7DEB78C0169837A01DC01CB
:1008200011968D919C9112972C9131E03093C703D2
:100830002093E9031092C8031092EA03DC01ED91C2
:10084000FC910280F381E02D41E050E0BE016F5F3A
:100850007F4F0995F80181819281DC01ED91FC9136
:100860000190F081E02DD7016C91099581E00E9403
:1008700013030F90DF91CF911F910F91FF90EF9095
:1008800008951F93CF93DF93EA01122FDC01119695
:100890008D919C91DC01ED91FC910280F381E02D22
:1008A0000995C817D90729F4812F0E94130391E0F5
:1008B000811190E0892FDF91CF911F910895CF93FF
:1008C000DF93EC018B818823A1F0888191E09093E4
:1008D000C7038093E9031092C8031092EA0381E0F2
:1008E0000E94130391E0811190E0892FDF91CF9155
:1008F00008950E94DB0281E08B83CE010E945F0499
:10090000982F8111E2CFF1CF8F929F92AF92BF9239
:10091000CF92DF92EF92FF920F931F93CF93DF93CB
:10092000D82FC62F142F613208F09CC00E94F2000D
:100930006B017C018091C10381116FC081E08093C4
:10094000C1031093C0039FEF9093BF031092BE03A7
:100950009C0F9093BD0380939C0380919C03DD0FBB
:10096000D82BD0939C0380919B03813009F07CC0ED
:1009700010929B030E94F2006B017C0180919C030A
:100980008093BB008091C3039091C403A091C503E1
:10099000B091C603892B8A2B8B2BA1F00E94F20009
:1009A0000091C3031091C4032091C5033091C60385
:1009B0006C197D098E099F09061717072807390743
:1009C00008F44CC08091BC0083FDD8CF85EC8093A7
:1009D000BC000E94F2006B017C018091C103813058
:1009E00009F444C08091BE038C1710F4C091BE037B
:1009F000EDE9F3E0ABE7B3E080E08C1359C08C2F56
:100A0000DF91CF911F910F91FF90EF90DF90CF90EA
:100A1000BF90AF909F908F9008958091C303909165
:100A2000C403A091C503B091C603892B8A2B8B2BDD
:100A300009F480CF0E94F2008090C3039090C40319
:100A4000A090C503B090C6036C197D098E099F095B
:100A500086169706A806B90608F06CCF8091C203E7
:100A60000E94F202C0E0CBCF85EEB1CF8091C303EC
:100A70009091C403A091C503B091C603892B8A2B22
:100A80008B2B09F4AACF0E94F2000091C3031091AE
:100A9000C4032091C5033091C6036C197D098E09EA
:100AA0009F09061717072807390708F096CFD6CFF2
:100AB00091919D938F5FA1CF0895E0917A038091EA
:100AC0007903E81730F4F0E0E558FC4F808190E0BE
:100AD00008958FEF9FEF089590917A0380917903A5
:100AE0002FEF3FEF981748F4E92FF0E0E558FC4F5F
:100AF000208130E09F5F90937A03C901089580912F
:100B0000790390917A03891B990B0895CF92DF9214
:100B1000EF92FF920F931F93CF93DF937C01CB0152
:100B20008A012091C703222389F0EB016B01C40ED7
:100B3000D51ECC15DD0569F06991D701ED91FC91C9
:100B40000190F081E02DC7010995F3CF642F0E9439
:100B50009602C801DF91CF911F910F91FF90EF9006
:100B6000DF90CF900895CF93DF931F92CDB7DEB77C
:100B700069832091C7032223F9F02091EA032032F0
:100B800058F021E030E0FC013383228390E080E0E4
:100B90000F90DF91CF9108958091C803E82FF0E086
:100BA000E753FC4F998190838F5F8093C8038093B4
:100BB000EA0381E090E0ECCF61E0CE0101960E9473
:100BC0009602F7CF90E080E00895FC0101900020AC
:100BD000E9F73197AF01481B590BBC018BEE93E04D
:100BE0000C9449018F929F92AF92BF920F931F93E3
:100BF000CF93DF93CDB7DEB7A1970FB6F894DEBFE2
:100C00000FBECDBF19A2423008F44AE08E010F5D3D
:100C10001F4F842E912CB12CA12CA50194010E9470
:100C20000711E62FB901CA01EA30F4F4E05DD801FA
:100C3000EE938D01232B242B252B79F790E080E078
:100C4000109719F0CD010E94E505A1960FB6F89412
:100C5000DEBF0FBECDBFDF91CF911F910F91BF902F
:100C6000AF909F908F900895E95CE1CFCF93DF9391
:100C70000E94E505EC018AE291E00E94E5058C0FF7
:100C80009D1FDF91CF910895CF93DF9300D0CDB713
:100C9000DEB789836A838091880490918904FC017E
:100CA000248135812230310590F0208131E030936C
:100CB000C7032093E9031092C8031092EA0321E0CE
:100CC00042E050E0BE016F5F7F4F0E9441040F90F1
:100CD0000F90DF91CF9108959F92AF92BF92CF92E4
:100CE000DF92EF92FF920F931F93CF93DF931F92A8
:100CF000CDB7DEB76C016983942EA52E7901DC0196
:100D000011968D919C9112972C9131E03093C703ED
:100D10002093E9031092C8031092EA03DC01ED91DD
:100D2000FC910280F381E02D41E050E0BE016F5F55
:100D30007F4F099581E00E941303B12C811120C0DF
:100D4000BE2C41E06E2DF60180810E948404109239
:100D50007A0380937903092D1A2DE00EF11ED60136
:100D600011968D919C91DC01ED91FC910284F385AB
:100D7000E02D0995F80181938F01EE16FF0679F7B2
:100D80008B2D0F90DF91CF911F910F91FF90EF90DE
:100D9000DF90CF90BF90AF909F900895AF92BF9299
:100DA000CF92DF92EF92FF921F93CF93DF93DC01FC
:100DB00014962D913C911597232B09F449C07A0183
:100DC000EC01888191E09093C7038093E90310922E
:100DD000C8031092EA0320E041E050E0CD010E94F8
:100DE0004104182F8823A1F1CC80DD8061E0C1147B
:100DF000D10409F460E0A62EB12C462F88810E9410
:100E0000840410927A03809379038A151B0401F5F8
:100E100090E080E08A159B0570F489819A81DC015D
:100E2000ED91FC910284F385E02D0995F701808313
:100E300081E090E0EFCFCD28B9F2812FDF91CF9103
:100E40001F91FF90EF90DF90CF90BF90AF900895EB
:100E500010E0F3CFCF92DF92EF92FF92CF93DF9328
:100E60006B017C01F7FE1FC06DE28BEE93E00E94E8
:100E70002902EC0166277727CB016C197D098E09C1
:100E80009F094AE00E94F205C80FD91F8AE291E04B
:100E90000E94E5058C0F9D1FDF91CF91FF90EF9091
:100EA000DF90CF9008954AE00E94F205EC01EECF6A
:100EB0000F931F93CF93DF931F92CDB7DEB780912F
:100EC000880490918904009711F00E94711286E0C5
:100ED00090E00E94D5118C018AE5F80180838AE8B0
:100EE00094E092838183138280E290E095838483EF
:100EF00010938904009388040E94DB0281E0F801CA
:100F00008383C8010E945F04182F882309F446C018
:100F100060E081E00E94440660E082E00E944406B6
:100F200061E084E00E94440660E085E00E9444069F
:100F300060E08DE00E94440660E08EE00E9444067E
:100F400060E08FE00E94440660E080E10E94440679
:100F500064E683E10E9444068AE18983AE014F5F23
:100F60005F4FBA0180918804909189040E94CE0657
:100F700069816F778AE10E9444068DE18983AE0121
:100F80004F5F5F4FBA0180918804909189040E945D
:100F9000CE06698160628DE10E944406812F0F9028
:100FA000DF91CF911F910F9108950F931F93CF93CE
:100FB000DF93EC0188819981009759F02A813B8168
:100FC0002617370730F081E0DF91CF911F910F9105
:100FD00008958B016F5F7F4F0E94FA12009759F0BE
:100FE000998388831B830A832C813D81232B59F7A6
:100FF000FC011082E8CF80E0E7CF85ED8093BC0054
:101000008091C3039091C403A091C503B091C6031E
:101010000796A11DB11D23E0B695A79597958795D5
:101020002A95D1F72091BC0024FD03C01092C10382
:1010300008954091C3035091C4036091C50370911A
:10104000C603452B462B472B69F30097A105B10535
:1010500041F02AE22A95F1F700C00197A109B109F0
:10106000E1CF8091C2030C94F2021F920F920FB64F
:101070000F9211242F933F938F939F93AF93BF931E
:101080008091710390917203A0917303B0917403E6
:1010900030916C0323E0230F2D3758F50196A11DE5
:1010A000B11D20936C038093710390937203A093FE
:1010B0007303B093740380916D0390916E03A091BC
:1010C0006F03B09170030196A11DB11D80936D0354
:1010D00090936E03A0936F03B0937003BF91AF9191
:1010E0009F918F913F912F910F900FBE0F901F9066
:1010F000189526E8230F0296A11DB11DD2CF1F928D
:101100000F920FB60F9211242F933F934F935F933B
:101110006F937F938F939F93AF93BF93EF93FF93BF
:101120008BEE93E00E940702FF91EF91BF91AF9188
:101130009F918F917F916F915F914F913F912F91EF
:101140000F900FBE0F901F9018951F920F920FB621
:101150000F9211242F938F939F93EF93FF93E0911E
:10116000FB03F091FC038081E0910104F091020403
:1011700082FD1BC09081809104048F5F8F7320914A
:101180000504821741F0E0910404F0E0E551FC4FC2
:10119000958F80930404FF91EF919F918F912F91F0
:1011A0000F900FBE0F901F9018958081F4CF1F9263
:1011B0000F920FB60F9211242F933F934F935F938B
:1011C0006F937F938F939F93AF93BF93EF93FF930F
:1011D0008091B900887F803609F44AC0F0F58832E2
:1011E00009F4A7C018F5803109F49BC0B8F488232E
:1011F00009F4F9C0883009F494C0FF91EF91BF91D0
:10120000AF919F918F917F916F915F914F913F919E
:101210002F910F900FBE0F901F901895883109F4F1
:1012200088C0803251F78093BF0314C0803409F422
:101230009DC040F48033B9F38833F9F68093BF033F
:1012400085ECB0C0803509F485C0883509F496C0B6
:10125000883499F60E94FD07D0CF883909F48CC0F4
:1012600038F5883729F050F4883611F0803729F6A0
:1012700083E08093C10310924D0257C0883809F46F
:101280007BC0803919F0803809F0B7CF80914D02CA
:10129000803208F071C0E0914D0281E08E0F8093A2
:1012A0004D028091BB00F0E0E35DFD4F80833DC0C7
:1012B000803B39F0E0F4803A09F479C0883A09F0CB
:1012C0009CCF84E08093C10310922C0210922B02D9
:1012D000E0917703F0917803099580912B028111B9
:1012E0000FC081E080932B0210920B0209C0803C5A
:1012F00009F4A6CF883C09F4A3CF883B09F07DCF41
:10130000E0912C0281E08E0F80932C02F0E0E55FEB
:10131000FD4F80818093BB0090912C0280912B0225
:1013200029C080919C038093BB0085EC8093BC0016
:1013300064CF9091BE038091BD03981758F5E0915A
:10134000BE0381E08E0F8093BE03F0E0E356FC4FB6
:101350008081E9CFE091BE0381E08E0F8093BE03D0
:101360008091BB00F0E0E356FC4F80839091BE0378
:101370008091BD039817C8F285E8D8CFE091BE03ED
:1013800081E08E0F8093BE038091BB00F0E0E356B6
:10139000FC4F80838091C00381115CCF81E08093FA
:1013A0009B0384EA8093BC001092C10326CF85EC96
:1013B0008093BC001092C10380914D02803230F4C2
:1013C000E0914D02F0E0E35DFD4F108260914D022F
:1013D00070E0E0917503F09176038DE292E009955B
:1013E00010924D020ACF1092BF0334CFEBEEF3E020
:1013F0001382128248EE53E060E070E0448355832C
:10140000668377838AE091E09183808385EC90E026
:101410009587848784EC90E09787868780EC90E0BE
:10142000918B808B81EC90E0938B828B82EC90E0AF
:10143000958B848B86EC90E0978B868B118E128E29
:10144000138E148EAAE8B4E013961C921E92129783
:1014500014964D935D936D937C9317978CE191E077
:1014600011969C938E93EBE9F4E08FEF81831382C6
:10147000148215821682178210861186128681E0E8
:101480008083E6E9F4E080E18383148288E180834D
:10149000B283A18310928904109288040895CF9397
:1014A000DF93CDB7DEB7C454D1090FB6F894DEBFD1
:1014B0000FBECDBF789484B5826084BD84B5816051
:1014C00084BD85B5826085BD85B5816085BD80910F
:1014D0006E00816080936E00109281008091810087
:1014E000826080938100809181008160809381007F
:1014F000809180008160809380008091B100846041
:101500008093B1008091B00081608093B0008091A1
:101510007A00846080937A0080917A008260809360
:101520007A0080917A00816080937A0080917A00BD
:10153000806880937A001092C100E091FB03F091E3
:10154000FC0382E08083E091F703F091F8031082BE
:10155000E091F903F091FA0380E180831092030493
:10156000E091FF03F091000486E08083E091FD03A9
:10157000F091FE03808180618083E091FD03F09112
:10158000FE03808188608083E091FD03F091FE037B
:10159000808180688083E091FD03F091FE0380816B
:1015A0008F7D808385E0E6E9F4E0DE019E96019080
:1015B0000D928A95E1F711E09E012F5F3F4F49019F
:1015C0000E94DB0219821AAB21E030E0A4016FE037
:1015D000CE018E960E946C068981833309F0FFC08C
:1015E0008DE291E00E94E50521E030E0A4016FE08A
:1015F000CE018E960E946C06698170E090E080E0DA
:1016000040E10E94F2058AE291E00E94E50580E255
:1016100090E09EAB8DAB80E489ABAE014B5C5F4F3D
:1016200063E2CE018E960E9403048FE28983A401B7
:1016300060E2CE018E960E94030488E391E00E944E
:10164000E50568EE73E080E090E00E9417010E94DB
:101650005807882309F4CEC00E94580765E081E04E
:101660000E944406540130E2A30EB11C332433948B
:10167000B8E22B2E8BEE93E00E94760285E0E6E93D
:10168000F4E0DE01999601900D928A95E1F722E04F
:1016900030E0A40168EACE0189960E946C062CA570
:1016A0003A813203C00111249195819591098C01F1
:1016B000990F220B330B23960CAF1DAF2EAF3FAF0C
:1016C000239722E030E0A4016AEACE0189960E94C5
:1016D0006C062CA53A813203C001112491958195A5
:1016E00091099C01990F440B550B2BAF3CAF4DAFAB
:1016F0005EAF22E030E0A4016CEACE0189960E9440
:101700006C062CA53A813203C00111249195819574
:1017100091098C01990F220B330B0FAB18AF29AF36
:101720003AAF6CE271E080E090E00E9417018EE039
:101730000E94E000BC0190E080E00E94AE0F20E03B
:1017400030E04AEF5EE30E940F102B013C018BEE6C
:1017500093E00E9476028BEE93E00E94E701181658
:1017600019060CF08CC01A8219821C821B821E8200
:101770001D8270E060E0C4010E94D50729813A8192
:10178000811143C02115310519F0C9010E94711260
:101790001A8219821E821D821C821B820E9499015C
:1017A0000D811E8197FD39C08A309105B1F18BAB57
:1017B0001CAA0F5F1F4FB801C4010E94D5078823E0
:1017C00069F329813A818D819E81BE016D5C7F4FD5
:1017D000820F931F0E94C9131E830D83DFCF87E4FE
:1017E00091E00E94360668EE73E080E090E00E948F
:1017F0001701E6CE83E991E00E9436066AE070E0C8
:1018000080E090E00E941701F9CF1E821D826CE2F9
:1018100071E0C9010E94C913C1CFC980DA80C11427
:10182000D10429F076010115110509F043C04D815D
:101830005E8169817A818BEE93E00E9449018AE2A0
:1018400091E00E94E5058D819E81892B91F06AEAE5
:1018500071E089819A810E94C013892B51F4809193
:101860006B03811106C060E082E00E944406309262
:101870006B0389819A81009711F00E947112E8EA46
:10188000F0E08491E4E9F0E00491E0E8F0E0149104
:10189000111149C080916B03882309F453C060E89B
:1018A00082E00E94440610926B034CC02596EEAC79
:1018B000FFAC259797012F5F3F4F25963FAF2EAF87
:1018C0002597F7018081082E000C990B0E94A00F2C
:1018D000892B61F7015011090C0D1D1DF801808144
:1018E000082E000C990B0E94A00F892B31F00E15C9
:1018F0001F0518F001501109F1CFA8014F5F5F4F8C
:101900004E195F095E834D83CE14DF0420F4B701C6
:10191000C6010E94B713E981FA818D819E81E80F8B
:10192000F91F108284CF81110E948900E12FF0E01D
:10193000EE0FFF1FE859FF4FA591B4918C9108233A
:1019400009F4A8CF04E110E08AE291E00E94E505E5
:1019500001501109C9F780EB91E00E94E50523963B
:101960006CAD7DAD8EAD9FAD23970E942A0788EBAD
:1019700091E00E94E5056BAD7CAD8DAD9EAD0E9402
:101980002A0780EC91E00E94E5056FA978AD89AD4A
:101990009AAD0E942A0788EC91E00E94E505A30118
:1019A0009201C301B2010E94D011882309F44BC0F7
:1019B0008EEC91E00E94E5058AE291E00E94E50547
:1019C00080919C048F5F843608F0B9C080939C049A
:1019D00080E10E94E000E0919C042E2F30E0D901CC
:1019E000AA0FBB1FA056BD4F8D939C9340919B04A3
:1019F000413009F06FC1EE2309F4A4C0E150893EE3
:101A0000934008F0A1C020E020936A03211181C215
:101A10008091690381116CC280EF91E00E943606CB
:101A200068EC70E080E090E00E94170120E030E078
:101A3000232B09F41FCE0E94F301882309F416CE4C
:101A40000E94000013CE2FEF3FEF4FE75FE7C30187
:101A5000B2010E94D01181110DC02FEF3FEF4FE76F
:101A60005FE7C301B2010E94A90F18161CF482EDB2
:101A700091E0A0CF2FEF3FEF4FE75FE4C301B2014A
:101A80000E94CB1118161CF486ED91E093CF2FEF36
:101A90003FEF4FE75FECC301B2010E94A90F87FD42
:101AA000F3CF2AE037ED43EA5BE3C301B2010E94C2
:101AB00030112B013C010E949C116B017C010E94A2
:101AC000AE0F9B01AC01C301B2010E942F112B018B
:101AD0003C014AE0C701B6010E94F2056EE28BEEBE
:101AE00093E00E94290220E030E040E251E4C3018B
:101AF000B2010E940F102B013C010E949C116B014E
:101B0000F12CE12C4AE0C701B6010E94F205C701A1
:101B1000B6010E94AE0F9B01AC01C301B2010E944D
:101B20002F1120E030E040E251E40E940F100E94AB
:101B30009C1190E080E04AE00E94F2053DCF1092B7
:101B40009C0446CFE3E65BCFF0E0EE0FFF1FE056CC
:101B5000FD4F80819181449708F055CF8FB7F8945D
:101B600040917103509172036091730370917403FB
:101B70008FBF40939E0450939F046093A004709382
:101B8000A1048091A2049091A304A091A404B09117
:101B9000A5048A019B01081B190B2A0B3B0BD901D9
:101BA000C8014093A2045093A3046093A4047093CB
:101BB000A504A801B9014D52514061097109433A88
:101BC000564061057105A0F4E0919F0221E02E0FBF
:101BD00020939F0234E0E39FF0011124E958FD4F68
:101BE00080839183A283B3832A3010F010929F02E6
:101BF00080919B0290919C02A0919D02B0919E02C7
:101C0000892B8A2B8B2B29F48AED91E00E943606D2
:101C1000FACEF401022D11920A95E9F7E7E7F2E016
:101C2000D40141915191619171914D935D936D9367
:101C30007D9312E0EF39F107A1F789E090E0F4011C
:101C400030E020E041915191619171912F5F3F4FC0
:101C5000C080D180E280F380C416D506E606F70680
:101C600058F4DF011497CD92DD92ED92FC92139718
:101C70004083518362837383281739071CF30197CC
:101C8000F1F68D8D9E8DAF8DB8A14D855E856F85EA
:101C90007889841B950BA60BB70B89379105A10595
:101CA000B10508F0B1CFFE013D9620E030E0A9017A
:101CB00081919191A191B191280F391F4A1F5B1F0A
:101CC000AE16BF06A9F760EE73E984E090E00E94CB
:101CD00007119ACEC901A90110E000E0BA016C59C0
:101CE0007F4F2017310734F0DA011197BA0102173C
:101CF00013071CF0DA01AD59BF4F660F771FFB01C8
:101D0000E056FD4FAA0FBB1FA056BD4F0190F081BA
:101D1000E02D6D917C91E617F70748F40F5F1F4F98
:101D20004150510904301105C9F610929D0470E02C
:101D300060E0FC01EC59FF4F261737073CF0AC017F
:101D400041505109FC01621773071CF0AC014D5959
:101D50005F4FEE0FFF1FE056FD4F440F551FDA0196
:101D6000A056BD4F40815181ED91FC91E417F507DC
:101D700008F049CE6F5F7F4F019764307105C9F657
:101D800080919D0430929D0481113DCE8FB7F894CF
:101D900040917103509172036091730370917403C9
:101DA0008FBF40939E0450939F046093A004709350
:101DB000A1048091A2049091A304A091A404B091E5
:101DC000A5048A019B01081B190B2A0B3B0BD901A7
:101DD000C8014093A2045093A3046093A404709399
:101DE000A504A801B9014D52514061097109433A56
:101DF000564061057105A0F4E091760221E02E0FB6
:101E00002093760234E0E39FF0011124E25BFD4F62
:101E100080839183A283B3832A3010F010927602DC
:101E20008091720290917302A0917402B091750238
:101E3000892B8A2B8B2B09F4E7CEF401022D11920A
:101E40000A95E9F7EEE4F2E0D401419151916191F4
:101E500071914D935D936D937D9312E0E637F10799
:101E6000A1F789E090E0F40130E020E04191519148
:101E7000619171912F5F3F4FC080D180E280F380EC
:101E8000C416D506E606F70658F4DF011497CD927E
:101E9000DD92ED92FC9213974083518362837383AA
:101EA000281739071CF30197F1F68D8D9E8DAF8DA4
:101EB000B8A14D855E856F857889841B950BA60B2F
:101EC000B70B87399105A105B10508F09DCEFE013C
:101ED0003D9620E030E0A90181919191A191B191CD
:101EE000280F391F4A1F5B1FAE16BF06A9F7EBCE9E
:101EF0008FEF91E00E94E5056091680370E090E04B
:101F000080E04AE00E94F2058AE291E00E94E50545
:101F100087CD8FEF91E00E94E50560916A0370E044
:101F200090E080E04AE00E94F2058AE291E00E949F
:101F3000E50580916A03809368033092690370CD50
:101F400091110C947C10803219F089508550C8F79B
:101F500008950E94EB0F08F481E00895E89409C009
:101F600097FB3EF490958095709561957F4F8F4FCC
:101F70009F4F9923A9F0F92F96E9BB279395F695E2
:101F8000879577956795B795F111F8CFFAF4BB0F60
:101F900011F460FF1BC06F5F7F4F8F4F9F4F16C0C4
:101FA000882311F096E911C0772321F09EE8872F4E
:101FB000762F05C0662371F096E8862F70E060E00A
:101FC0002AF09A95660F771F881FDAF7880F969583
:101FD000879597F90895990F0008550FAA0BE0E827
:101FE000FEEF16161706E807F907C0F012161306DB
:101FF000E407F50798F0621B730B840B950B39F41B
:102000000A2661F0232B242B252B21F408950A2680
:1020100009F4A140A6958FEF811D811D08950E94AE
:1020200022100C9496100E94881038F00E948F1095
:1020300020F0952311F00C947F100C94851011243E
:102040000C94CA100E94A71070F3959FC1F3950FCE
:1020500050E0551F629FF001729FBB27F00DB11D2C
:10206000639FAA27F00DB11DAA1F649F6627B00DBC
:10207000A11D661F829F2227B00DA11D621F739FA5
:10208000B00DA11D621F839FA00D611D221F749FB3
:102090003327A00D611D231F849F600D211D822FFA
:1020A000762F6A2F11249F5750409AF0F1F0882321
:1020B0004AF0EE0FFF1FBB1F661F771F881F91504E
:1020C0005040A9F79E3F510580F00C947F100C946E
:1020D000CA105F3FE4F3983ED4F3869577956795F1
:1020E000B795F795E7959F5FC1F7FE2B880F911D78
:1020F0009695879597F9089599278827089597F9D0
:102100009F6780E870E060E008959FEF80EC08959D
:1021100000240A94161617061806090608950024C6
:102120000A9412161306140605060895092E039440
:10213000000C11F4882352F0BB0F40F4BF2B11F4B4
:1021400060FF04C06F5F7F4F8F4F9F4F089557FD13
:102150009058440F551F59F05F3F71F04795880F15
:1021600097FB991F61F09F3F79F0879508951216AC
:1021700013061406551FF2CF4695F1DF08C0161658
:1021800017061806991FF1CF869571056105089409
:102190000895E894BB2766277727CB0197F9089520
:1021A0002F923F924F925F926F927F928F929F9267
:1021B000AF92BF92CF92DF92EF92FF920F931F9355
:1021C000CF93DF93CDB7DEB7CA1BDB0B0FB6F89406
:1021D000DEBF0FBECDBF09942A88398848885F8446
:1021E0006E847D848C849B84AA84B984C884DF80B7
:1021F000EE80FD800C811B81AA81B981CE0FD11D9B
:102200000FB6F894DEBF0FBECDBFED010895A1E279
:102210001A2EAA1BBB1BFD010DC0AA1FBB1FEE1F60
:10222000FF1FA217B307E407F50720F0A21BB30BAB
:10223000E40BF50B661F771F881F991F1A9469F727
:1022400060957095809590959B01AC01BD01CF0183
:102250000895EE0FFF1F0590F491E02D099450585A
:10226000BB27AA270E9447110C9496100E94881041
:1022700038F00E948F1020F039F49F3F19F426F4B3
:102280000C9485100EF4E095E7FB0C947F10E92F79
:102290000E94A71058F3BA176207730784079507BF
:1022A00020F079F4A6F50C94C9100EF4E0950B2EED
:1022B000BA2FA02D0B01B90190010C01CA01A00198
:1022C0001124FF27591B99F0593F50F4503E68F1F3
:1022D0001A16F040A22F232F342F4427585FF3CF34
:1022E000469537952795A795F0405395C9F77EF405
:1022F0001F16BA0B620B730B840BBAF09150A1F04E
:10230000FF0FBB1F661F771F881FC2F70EC0BA0FD3
:10231000621F731F841F48F4879577956795B7955B
:10232000F7959E3F08F0B0CF9395880F08F0992756
:10233000EE0F9795879508950E94AF1088F09F57EC
:1023400098F0B92F9927B751B0F0E1F0660F771FD9
:10235000881F991F1AF0BA95C9F714C0B13091F0CF
:102360000E94C910B1E008950C94C910672F782F0E
:102370008827B85F39F0B93FCCF386957795679594
:10238000B395D9F73EF490958095709561957F4F00
:102390008F4F9F4F08950E94EB0F08F48FEF089521
:1023A0000E94EB0F880B990B08950F931F93CF9307
:1023B000DF938230910510F482E090E0E091A80470
:1023C000F091A90430E020E0B0E0A0E0309799F46B
:1023D0002115310509F44AC0281B390B2430310579
:1023E000D8F58A819B816115710589F1FB01938381
:1023F0008283FE0111C040815181028113814817FF
:102400005907E0F04817590799F4109761F01296B0
:102410000C93129713961C933296CF01DF91CF91B4
:102420001F910F9108950093A8041093A904F4CF6D
:102430002115310551F04217530738F0A901DB018E
:102440009A01BD01DF01F801C1CFEF01F9CF9093EF
:10245000A9048093A804CDCFFE01E20FF31F81935E
:1024600091932250310939832883D7CF2091A60434
:102470003091A704232B41F42091020130910301F4
:102480003093A7042093A60420910001309101010C
:102490002115310541F42DB73EB74091040150910B
:1024A0000501241B350BE091A604F091A704E21767
:1024B000F307A0F42E1B3F0B2817390778F0AC0167
:1024C0004E5F5F4F2417350748F04E0F5F1F509344
:1024D000A7044093A604819391939FCFF0E0E0E09E
:1024E0009CCFCF93DF930097E9F0FC0132971382E2
:1024F0001282A091A804B091A904ED0130E020E07F
:102500001097A1F420813181820F931F2091A6049E
:102510003091A7042817390709F061C0F093A70488
:10252000E093A604DF91CF910895EA01CE17DF076B
:10253000E8F54A815B819E0141155105B1F7E9013A
:10254000FB83EA8349915991C40FD51FEC17FD070E
:1025500061F4808191810296840F951FE90199832E
:102560008883828193819B838A83F0E0E0E01296E6
:102570008D919C9113970097B9F52D913C911197EE
:10258000CD010296820F931F2091A6043091A704DB
:102590002817390739F6309751F51092A90410928F
:1025A000A804B093A704A093A604BCCFD383C2838E
:1025B00040815181840F951FC817D90761F44E5F80
:1025C0005F4F88819981480F591F518340838A81C9
:1025D0009B81938382832115310509F0B0CFF0935D
:1025E000A904E093A8049ECFFD01DC01C0CF1382B3
:1025F0001282D7CFB0E0A0E0E0E0F3E10C94D2107B
:102600008C01009751F4CB010E94D5118C01C801B7
:10261000CDB7DEB7E0E10C94EE10FC01E60FF71F3A
:102620009C0122503109E217F30708F49DC0D9013B
:10263000CD91DC911197C617D70798F0C530D10519
:1026400030F3CE0104978617970708F3C61BD70B04
:102650002297C193D1936D937C93CF010E94711205
:10266000D6CF5B01AC1ABD0A4C018C0E9D1EA09109
:10267000A804B091A904512C412CF12CE12C109705
:1026800031F58091A6049091A7048815990509F069
:102690005CC04616570608F058C080910001909122
:1026A0000101009741F48DB79EB74091040150910C
:1026B0000501841B950BE817F90708F055C0F09346
:1026C000A704E093A604F90171836083A0CF8D91E4
:1026D0009C91119712966C90129713967C90139779
:1026E000A815B90559F56C0142E0C40ED11CCA14F5
:1026F000DB0420F1AC014A195B09DA011296159747
:1027000080F06282738251834083D9016D937C9300
:10271000E114F10471F0D7011396FC93EE93129734
:1027200076CF22968C0F9D1FF90191838083F30150
:10273000EFCFF093A904E093A80469CF4816590697
:1027400008F42C017D01D3019ACFCB010E94D51151
:102750007C01009749F0AE01B8010E94B713C8018F
:102760000E947112870153CF10E000E050CFFB01AF
:10277000DC0102C001900D9241505040D8F70895FD
:10278000FB01DC018D91019080190110D9F3990BA7
:102790000895FB01DC0101900D920020E1F70895FE
:0427A000F894FFCFDB
:1027A4000000AA048000000000002902490176010B
:1027B4007602E7018501D90100000000B305860512
:1027C400E2055C057F056C055D050D0A006368691B
:1027D40070206964203A2000416363656C6572610E
:1027E40074696F6E3A0A00496E697469616C697A3A
:1027F4006174696F6E206661696C65642C20706C0D
:102804006561736520636865636B20746865206324
:102814006F6E6E656374696F6E20616E64204932F9
:102824004320616464726573732073657474696EA4
:10283400677300436F756C64206E6F742066696EF5
:1028440064204452563236303500535441525400B9
:10285400416363656C583A00416363656C593A009F
:10286400416363656C5A3A0054656D703A006E6159
:102874006E00696E66006F76660057616974206643
:102884006F722076616C6964206461746120210038
:102894004865617274526174653A4E554C4C0048F7
:0A28A40065617274526174653A00B8
:00000001FF
