:100000000C9458000C9480000C9480000C94800098
:100010000C9480000C9480000C9480000C94800060
:100020000C9480000C9480000C9480000C94800050
:100030000C9480000C9480000C9480000C94800040
:100040000C94C1070C9480000C9431080C940B089C
:100050000C9480000C9480000C9480000C94800020
:100060000C9463080C948000000000002500280018
:100070002B00040404040404040402020202020229
:10008000030303030303010204081020408001025C
:1000900004081020010204081020000000080002DB
:1000A00001000003040700000000000000008209B6
:1000B00011241FBECFEFD8E0DEBFCDBF12E0A0E01D
:1000C000B1E0ECE2F2E202C005900D92A430B1077B
:1000D000D9F724E0A4E0B2E001C01D92A03AB20733
:1000E000E1F710E0C8E5D0E004C02197FE010E94CE
:1000F0001F0EC735D107C9F70E94DB090C941411F4
:100100000C9400000895089590E0FC01E656FF4F1E
:100110002491FC01EA57FF4F3491FC01EE58FF4F48
:10012000E491EE23C9F0222339F0233001F1A8F441
:10013000213019F1223029F1F0E0EE0FFF1FE859CC
:10014000FF4FA591B4918FB7F894EC91611126C03F
:1001500030953E233C938FBF08952730A9F0283077
:10016000C9F0243049F7809180008F7D03C08091D1
:1001700080008F7780938000DFCF84B58F7784BD38
:10018000DBCF84B58F7DFBCF8091B0008F778093DC
:10019000B000D2CF8091B0008F7DF9CF3E2BDACF67
:1001A0008E50806480937C0080917A00806480937C
:1001B0007A0080917A0086FDFCCF80917800909142
:1001C000790008953FB7F894809167039091680390
:1001D000A0916903B0916A0326B5A89B05C02F3F83
:1001E00019F00196A11DB11D3FBFBA2FA92F982F5D
:1001F0008827BC01CD01620F711D811D911D42E058
:10020000660F771F881F991F4A95D1F708958F921F
:100210009F92AF92BF92CF92DF92EF92FF924B01EB
:100220005C010E94E2006B017C010E94E2006C19FB
:100230007D098E099F09683E734081059105A8F3E9
:1002400021E0821A9108A108B10888EEC80E83E067
:10025000D81EE11CF11C81149104A104B10429F7FA
:10026000FF90EF90DF90CF90BF90AF909F908F90D6
:100270000895AF92BF92CF92DF92EF92FF920F93C9
:100280001F93CF93DF936C017B018B01040F151F2C
:10029000EB015E01AE18BF08C017D10759F0699194
:1002A000D601ED91FC910190F081E02DC6010995F8
:1002B000892B79F7C501DF91CF911F910F91FF90A5
:1002C000EF90DF90CF90BF90AF900895FC01538DD9
:1002D000448D252F30E0842F90E0821B930B541720
:1002E00010F0CF96089501970895FC01918D828DAD
:1002F000981761F0A28DAE0FBF2FB11D5D968C9146
:10030000928D9F5F9F73928F90E008958FEF9FEF84
:100310000895FC01918D828D981731F0828DE80F40
:10032000F11D858D90E008958FEF9FEF0895FC01FA
:10033000918D228D892F90E0805C9F4F821B9109C7
:100340008F739927089581EE93E00E94970121E031
:10035000892B09F420E0822F089580E090E0892B1A
:1003600029F00E94A30181110C9400000895FC0162
:10037000A48DA80FB92FB11DA35ABF4F2C91848D06
:1003800090E001968F739927848FA689B7892C9363
:10039000A089B1898C91837080648C93938D848DB6
:1003A000981306C00288F389E02D80818F7D8083B9
:1003B0000895EF92FF920F931F93CF93DF93EC0179
:1003C00081E0888F9B8D8C8D98131AC0E889F989FC
:1003D000808185FF15C09FB7F894EE89FF896083FF
:1003E000E889F98980818370806480839FBF81E080
:1003F00090E0DF91CF911F910F91FF90EF900895C2
:10040000F62E0B8D10E00F5F1F4F0F731127E02E9C
:100410008C8D8E110CC00FB607FCFACFE889F989D4
:10042000808185FFF5CFCE010E94B701F1CFEB8D22
:10043000EC0FFD2FF11DE35AFF4FF0829FB7F894A8
:100440000B8FEA89FB8980818062CFCFCF93DF93C6
:10045000EC01888D8823B9F0AA89BB89E889F989DC
:100460008C9185FD03C0808186FD0DC00FB607FC11
:10047000F7CF8C9185FFF2CF808185FFEDCFCE0144
:100480000E94B701E9CFDF91CF9108952091250215
:10049000260F3327331F21323105ECF42091B703A7
:1004A000FC0190E080E0243069F082E00895A091A2
:1004B00025022191AC014B5F5D4FA40FB52FB11DFB
:1004C0002C930196861798F380912502680F60930C
:1004D000250280E0089581E008951092B70381E03D
:1004E0008093B6031092910361E082E10E94840040
:1004F00061E083E10E948400E9EBF0E080818E7F7F
:10050000808380818D7F808388E48093B80085E438
:100510008093BC0008951092700310926F031092A4
:10052000BE031092E0030E946D0282E890E0909377
:100530006E0380936D0383E890E090936C03809347
:100540006B030895CF93DF9391E090930402882387
:10055000B9F0C091B800D091BA008091BC008A7BFC
:100560008093BC0060E082E10E94840060E083E14F
:100570000E9484000E946D02D093BA00C093B8001C
:10058000DF91CF9108958F929F92AF92BF92CF92B9
:10059000DF92EF92FF920F931F93CF93DF93D0914F
:1005A000E003D13208F0D7C0182FC091DF030E94BA
:1005B000E2006B017C018091B70381116BC082E086
:1005C0008093B7031093B6038FEF8093B503109217
:1005D000B403D093B303AFEBB3E0E3E9F3E080E01F
:1005E000D81391C01092920380919203CC0FC82B24
:1005F000C093920380919103813009F088C01092DA
:1006000091030E94E2006B017C0180919203809330
:10061000BB008091B9039091BA03A091BB03B09144
:10062000BC03892B8A2B8B2BA1F00E94E200009146
:10063000B9031091BA032091BB033091BC036C192C
:100640007D098E099F09061717072807390708F43F
:1006500042C08091BC0083FDD8CF85EC8093BC0064
:100660000E94E2006B017C018091B703823009F4A3
:1006700050C08091B5038F3F09F46FC08091B503DE
:10068000803209F46CC08091B503803309F469C0ED
:1006900084E026C08091B9039091BA03A091BB0376
:1006A000B091BC03892B8A2B8B2B09F484CF0E9439
:1006B000E2008090B9039090BA03A090BB03B09081
:1006C000BC036C197D098E099F0986169706A8063A
:1006D000B90608F070CF8091B8030E94A20285E0AD
:1006E0001092BE031092E0031092BD03DF91CF91F0
:1006F0001F910F91FF90EF90DF90CF90BF90AF9040
:100700009F908F9008959D9191938F5F69CF85EE13
:10071000A5CF8091B9039091BA03A091BB03B0918A
:10072000BC03892B8A2B8B2B09F49ECF0E94E200FD
:100730000091B9031091BA032091BB033091BC031F
:100740006C197D098E099F090617170728073907B5
:1007500008F08ACFC0CF81E0C3CF80E0C1CF82E074
:10076000BFCF83E0BDCFEF92FF920F931F93CF9344
:10077000DF931F92CDB7DEB78C0169837A01DC016C
:1007800011968D919C9112972C9131E03093BD037D
:100790002093DF031092BE031092E003DC01ED9181
:1007A000FC910280F381E02D41E050E0BE016F5FDB
:1007B0007F4F0995F80181819281DC01ED91FC91D7
:1007C0000190F081E02DD7016C91099581E00E94A4
:1007D000C3020F90DF91CF911F910F91FF90EF9087
:1007E00008951F93CF93DF93EA01122FDC01119636
:1007F0008D919C91DC01ED91FC910280F381E02DC3
:100800000995C817D90729F4812F0E94C30291E0E6
:10081000811190E0892FDF91CF911F910895CF939F
:10082000DF93EC018B818823A1F0888191E0909384
:10083000BD038093DF031092BE031092E00381E0BA
:100840000E94C30291E0811190E0892FDF91CF9146
:1008500008950E948B0281E08B83CE010E940F04D9
:10086000982F8111E2CFF1CF8F929F92AF92BF92DA
:10087000CF92DF92EF92FF920F931F93CF93DF936C
:10088000D82FC62F142F613208F09CC00E94E200BE
:100890006B017C018091B70381116FC081E080936F
:1008A000B7031093B6039FEF9093B5031092B40370
:1008B0009C0F9093B3038093920380919203DD0F7A
:1008C000D82BD093920380919103813009F07CC0A2
:1008D000109291030E94E2006B017C0180919203CF
:1008E0008093BB008091B9039091BA03A091BB03A0
:1008F000B091BC03892B8A2B8B2BA1F00E94E200C4
:100900000091B9031091BA032091BB033091BC034D
:100910006C197D098E099F090617170728073907E3
:1009200008F44CC08091BC0083FDD8CF85EC809347
:10093000BC000E94E2006B017C018091B703813012
:1009400009F444C08091B4038C1710F4C091B4032F
:10095000E3E9F3E0A1E7B3E080E08C1359C08C2F0A
:10096000DF91CF911F910F91FF90EF90DF90CF908B
:10097000BF90AF909F908F9008958091B903909110
:10098000BA03A091BB03B091BC03892B8A2B8B2B9C
:1009900009F480CF0E94E2008090B9039090BA03DE
:1009A000A090BB03B090BC036C197D098E099F0910
:1009B00086169706A806B90608F06CCF8091B80392
:1009C0000E94A202C0E0CBCF85EEB1CF8091B903E7
:1009D0009091BA03A091BB03B091BC03892B8A2BE1
:1009E0008B2B09F4AACF0E94E2000091B903109169
:1009F000BA032091BB033091BC036C197D098E09A9
:100A00009F09061717072807390708F096CFD6CF92
:100A100091919D938F5FA1CF0895E0917003809194
:100A20006F03E81730F4F0E0EF58FC4F808190E05E
:100A300008958FEF9FEF08959091700380916F0359
:100A40002FEF3FEF981748F4E92FF0E0EF58FC4FF5
:100A5000208130E09F5F90937003C90108958091D9
:100A60006F0390917003891B990B0895CF92DF92C9
:100A7000EF92FF920F931F93CF93DF937C01CB01F3
:100A80008A012091BD03222389F0EB016B01C40E82
:100A9000D51ECC15DD0569F06991D701ED91FC916A
:100AA0000190F081E02DC7010995F3CF642F0E94DA
:100AB0004602C801DF91CF911F910F91FF90EF90F7
:100AC000DF90CF900895CF93DF931F92CDB7DEB71D
:100AD00069832091BD032223F9F02091E0032032A5
:100AE00058F021E030E0FC013383228390E080E085
:100AF0000F90DF91CF9108958091BE03E82FF0E031
:100B0000E154FC4F998190838F5F8093BE03809363
:100B1000E00381E090E0ECCF61E0CE0101960E941D
:100B20004602F7CF90E080E00895FC01019000209C
:100B3000E9F73197AF01481B590BBC0181EE93E0F7
:100B40000C9439018F929F92AF92BF920F931F9393
:100B5000CF93DF93CDB7DEB7A1970FB6F894DEBF82
:100B60000FBECDBF19A2423008F44AE08E010F5DDE
:100B70001F4F842E912CB12CA12CA50194010E9411
:100B8000FD0DE62FB901CA01EA30F4F4E05DD801A9
:100B9000EE938D01232B242B252B79F790E080E019
:100BA000109719F0CD010E949505A1960FB6F89403
:100BB000DEBF0FBECDBFDF91CF911F910F91BF90D0
:100BC000AF909F908F900895E95CE1CFCF93DF9332
:100BD000D0E0C0E0009719F00E949505EC018AE290
:100BE00091E00E9495058C0F9D1FDF91CF91089594
:100BF000CF93DF9300D0CDB7DEB789836A8380912E
:100C00007E0490917F04FC012481358122303105DE
:100C100090F0208131E03093BD032093DF031092E8
:100C2000BE031092E00321E042E050E0BE016F5F9E
:100C30007F4F0E94F1030F900F90DF91CF910895A5
:100C40009F92AF92BF92CF92DF92EF92FF920F935B
:100C50001F93CF93DF931F92CDB7DEB76C016983EB
:100C6000942EA52E7901DC0111968D919C911297FD
:100C70002C9131E03093BD032093DF031092BE032B
:100C80001092E003DC01ED91FC910280F381E02DF4
:100C900041E050E0BE016F5F7F4F099581E00E9407
:100CA000C302B12C811120C0BE2C41E06E2DF60193
:100CB00080810E9434041092700380936F03092D89
:100CC0001A2DE00EF11ED60111968D919C91DC013A
:100CD000ED91FC910284F385E02D0995F801819353
:100CE0008F01EE16FF0679F78B2D0F90DF91CF91D4
:100CF0001F910F91FF90EF90DF90CF90BF90AF903A
:100D00009F900895AF92BF92CF92DF92EF92FF92A1
:100D10001F93CF93DF93DC0114962D913C9115978F
:100D2000232B09F449C07A01EC01888191E090936A
:100D3000BD038093DF031092BE031092E00320E016
:100D400041E050E0CD010E94F103182F8823A1F16A
:100D5000CC80DD8061E0C114D10409F460E0A62EEE
:100D6000B12C462F88810E94340410927003809326
:100D70006F038A151B0401F590E080E08A159B053E
:100D800070F489819A81DC01ED91FC910284F385F4
:100D9000E02D0995F701808381E090E0EFCFCD2829
:100DA000B9F2812FDF91CF911F91FF90EF90DF90EB
:100DB000CF90BF90AF90089510E0F3CFCF92DF9225
:100DC000EF92FF92CF93DF936B017C01F7FE1FC080
:100DD0006DE281EE93E00E94D901EC01662777274E
:100DE000CB016C197D098E099F094AE00E94A2057A
:100DF000C80FD91F8AE291E00E9495058C0F9D1FB4
:100E0000DF91CF91FF90EF90DF90CF9008954AE06F
:100E10000E94A205EC01EECF0F931F93CF93DF93B7
:100E20001F92CDB7DEB780917E0490917F0400972A
:100E300011F00E948B1086E090E00E94EF0F8C0171
:100E40008AE5F801808380E894E0928381831382AD
:100E500080E290E09583848310937F0400937E0466
:100E60000E948B0281E0F8018383C8010E940F0475
:100E7000182F882309F446C060E081E00E94F8053D
:100E800060E082E00E94F80561E084E00E94F805DD
:100E900060E085E00E94F80560E08DE00E94F805C2
:100EA00060E08EE00E94F80560E08FE00E94F805A7
:100EB00060E080E10E94F80564E683E10E94F805A5
:100EC0008AE18983AE014F5F5F4FBA0180917E0452
:100ED00090917F040E94820669816F778AE10E9467
:100EE000F8058DE18983AE014F5F5F4FBA018091B4
:100EF0007E0490917F040E948206698160628DE188
:100F00000E94F805812F0F90DF91CF911F910F91D3
:100F1000089585ED8093BC008091B9039091BA0348
:100F2000A091BB03B091BC030796A11DB11D23E0A6
:100F3000B695A795979587952A95D1F72091BC00EE
:100F400024FD03C01092B70308954091B903509156
:100F5000BA036091BB037091BC03452B462B472B12
:100F600069F30097A105B10541F02AE22A95F1F74E
:100F700000C00197A109B109E1CF8091B8030C9499
:100F8000A2021F920F920FB60F9211242F933F933C
:100F90008F939F93AF93BF9380916303909164036A
:100FA000A0916503B09166033091620323E0230FA3
:100FB0002D3758F50196A11DB11D20936203809332
:100FC000630390936403A0936503B09366038091D9
:100FD000670390916803A0916903B0916A03019639
:100FE000A11DB11D8093670390936803A0936903CB
:100FF000B0936A03BF91AF919F918F913F912F91D1
:101000000F900FBE0F901F90189526E8230F0296A1
:10101000A11DB11DD2CF1F920F920FB60F921124B6
:101020002F933F934F935F936F937F938F939F93F0
:10103000AF93BF93EF93FF9381EE93E00E94B701CC
:10104000FF91EF91BF91AF919F918F917F916F91A0
:101050005F914F913F912F910F900FBE0F901F9076
:1010600018951F920F920FB60F9211242F938F9302
:101070009F93EF93FF93E091F103F091F20380814E
:10108000E091F703F091F80382FD1BC090818091FD
:10109000FA038F5F8F732091FB03821741F0E09179
:1010A000FA03F0E0EF51FC4F958F8093FA03FF9124
:1010B000EF919F918F912F910F900FBE0F901F90E6
:1010C00018958081F4CF1F920F920FB60F921124C2
:1010D0002F933F934F935F936F937F938F939F9340
:1010E000AF93BF93EF93FF938091B900887F8036D1
:1010F00009F44AC0F0F5883209F4A7C018F5803128
:1011000009F49BC0B8F4882309F4F9C0883009F4C5
:1011100094C0FF91EF91BF91AF919F918F917F917B
:101120006F915F914F913F912F910F900FBE0F9054
:101130001F901895883109F488C0803251F7809348
:10114000B50314C0803409F49DC040F48033B9F372
:101150008833F9F68093B50385ECB0C0803509F487
:1011600085C0883509F496C0883499F60E948907AD
:10117000D0CF883909F48CC038F5883729F050F47D
:10118000883611F0803729F683E08093B7031092F8
:10119000470257C0883809F47BC0803919F080387D
:1011A00009F0B7CF80914702803208F071C0E0911A
:1011B000470281E08E0F809347028091BB00F0E0F0
:1011C000E95DFD4F80833DC0803B39F0E0F4803A1B
:1011D00009F479C0883A09F09CCF84E08093B70382
:1011E0001092260210922502E0916D03F0916E0399
:1011F00009958091250281110FC081E0809325021D
:101200001092050209C0803C09F4A6CF883C09F47D
:10121000A3CF883B09F07DCFE091260281E08E0FBD
:1012200080932602F0E0EB5FFD4F80818093BB004E
:10123000909126028091250229C08091920380938B
:10124000BB0085EC8093BC0064CF9091B403809187
:10125000B303981758F5E091B40381E08E0F8093A3
:10126000B403F0E0ED56FC4F8081E9CFE091B40388
:1012700081E08E0F8093B4038091BB00F0E0ED56C7
:10128000FC4F80839091B4038091B3039817C8F208
:1012900085E8D8CFE091B40381E08E0F8093B4034A
:1012A0008091BB00F0E0ED56FC4F80838091B60347
:1012B00081115CCF81E08093910384EA8093BC002C
:1012C0001092B70326CF85EC8093BC001092B70331
:1012D00080914702803230F4E0914702F0E0E95D0E
:1012E000FD4F10826091470270E0E0916B03F09136
:1012F0006C0387E292E00995109247020ACF1092A0
:10130000B50334CFE1EEF3E01382128248EE53E0EE
:1013100060E070E044835583668377838AE091E0E0
:101320009183808385EC90E09587848784EC90E0BE
:101330009787868780EC90E0918B808B81EC90E0A2
:10134000938B828B82EC90E0958B848B86EC90E083
:10135000978B868B118E128E138E148EA0E8B4E0BC
:1013600013961C921E92129714964D935D936D9353
:101370007C9317978CE191E011969C938E93E1E911
:10138000F4E08FEF81831382148215821682178214
:1013900010861186128681E08083ECE8F4E080E11B
:1013A0008383148288E18083B283A18310927F04B7
:1013B00010927E040895CF93DF93CDB7DEB7E49704
:1013C0000FB6F894DEBF0FBECDBF789484B58260AF
:1013D00084BD84B5816084BD85B5826085BD85B5D9
:1013E000816085BD80916E00816080936E00109257
:1013F00081008091810082608093810080918100D2
:101400008160809381008091800081608093800062
:101410008091B10084608093B1008091B0008160C0
:101420008093B00080917A00846080937A008091EC
:101430007A00826080937A0080917A008160809344
:101440007A0080917A00806880937A001092C100BF
:10145000E091F103F091F20382E08083E091ED03EB
:10146000F091EE031082E091EF03F091F00380E140
:1014700080831092F903E091F503F091F60386E082
:101480008083E091F303F091F40380818061808395
:10149000E091F303F091F403808188608083E09110
:1014A000F303F091F403808180688083E091F3037B
:1014B000F091F40380818F7D808385E0ECE8F4E097
:1014C000DE019E9601900D928A95E1F7FF24F39438
:1014D0008E010F5F1F4F0E948B021982FAAA21E032
:1014E00030E0A8016FE0CE018E960E94200689812F
:1014F000833309F02CC18DE291E00E94950521E033
:1015000030E0A8016FE0CE018E960E94200669812E
:1015100070E090E080E040E10E94A2058AE291E064
:101520000E94950580E290E09CAB8BAB80E489AB98
:10153000AE014D5C5F4F63E2CE018E960E94B30315
:101540008FE28983A80160E2CE018E960E94B303E8
:1015500088E391E00E94950568EE73E080E090E0FA
:101560000E9407010E940C07882309F4FBC00E9417
:101570000C0765E081E00E94F805180120E2220EC8
:10158000311C809192048F5F843608F0F6C08093FE
:1015900092048FE00E94D000E09192042E2F30E060
:1015A000D901AA0FBB1FA656BD4F8D939C934091A6
:1015B0009104413009F0A0C1EE2309F4E1C0E150EB
:1015C000893E934008F0DEC030E020E08BEC91E0F3
:1015D000222321F03327C90180549E4F0E94E60543
:1015E00081EE93E00E94260285E0ECE8F4E0DE0163
:1015F000999601900D928A95E1F722E030E0A801DA
:1016000068EACE0189960E9420062CA53A81320311
:1016100020011124519441945108052C000C6608B6
:10162000770822E030E0A8016AEACE0189960E949C
:1016300020062CA53A813203400111249194819413
:101640009108092C000CAA08BB0822E030E0A80190
:101650006CEACE0189960E9420062CA53A813203BD
:1016600060011124D194C194D1080D2C000CEE0816
:10167000FF086CE271E080E090E00E9407018AEDD3
:1016800091E00E949505C301B2010E94DE0682EE40
:1016900091E00E949505C501B4010E94DE068AEE24
:1016A00091E00E949505C701B6010E94DE068EE01A
:1016B0000E94D000BC0190E080E00E94C60E20E0B5
:1016C00030E04AEF5EE30E947D0F6B017C0182EF08
:1016D00091E00E949505A7019601C701B6010E94FD
:1016E000EA0F882309F40DC288EF91E00E94950566
:1016F0008AE291E00E94950581EE93E00E94260225
:1017000060E882E00E94F80564E170E080E090E02B
:101710000E94070160E082E00E94F80564E670E044
:1017200080E090E00E94070164E170E080E090E0DA
:101730000E94070180E090E0892B09F422CF0E94EB
:10174000A301882309F41DCF0E9400001ACF87E46B
:1017500091E00E94E60568EE73E080E090E00E9470
:101760000701B9CE83E991E00E94E6056AE070E0E6
:1017700080E090E00E940701F9CF1092920409CF17
:10178000E3E61ECFF0E0EE0FFF1FE656FD4F80812F
:101790009181449708F018CF2FB7F8948091630394
:1017A00090916403A0916503B09166032FBF80936D
:1017B000940490939504A0939604B0939704409159
:1017C00098045091990460919A0470919B046C0163
:1017D0007D01C41AD50AE60AF70AB701A60180936B
:1017E000980490939904A0939A04B0939B04E09179
:1017F000990281E08E0F8093990224E0E29FF0012C
:101800001124EF58FD4F40835183628373838A30E4
:1018100010F0109299028091950290919602A091F9
:101820009702B0919802892B8A2B8B2B29F48AEA94
:1018300091E00E94E605C8CEF80188E2C82E119218
:10184000CA94E9F7E1E7F2E0D80141915191619141
:1018500071914D935D936D937D9322E0E939F20789
:10186000A1F789E090E0F80130E020E0408151816B
:10187000628173812F5F3F4FC480D580E680F780FF
:10188000C416D506E606F70640F4C082D182E2828D
:10189000F382448355836683778334962817390708
:1018A0002CF3019701F78D8D9E8DAF8DB8A14D85DD
:1018B0005E856F857889841B950BA60BB70B8937DE
:1018C0009105A105B10508F0B2CFFE013D9620E0DB
:1018D00030E0A90181919191A191B191280F391F17
:1018E0004A1F5B1F2E163F06A9F760EE73E984E0DE
:1018F00090E00E94FD0D6ACEC901A90170E060E090
:10190000FA01EC59FF4F2617370734F0DA01119727
:10191000FA01621773071CF0DA01AD59BF4FEE0FE1
:10192000FF1FE656FD4FAA0FBB1FA656BD4FE08016
:10193000F180ED91FC91EE16FF0648F46F5F7F4F4A
:101940004150510964307105D9F61092930470E04A
:1019500060E0FC01EC59FF4F261737073CF0AC0163
:1019600041505109FC01621773071CF0AC014D593D
:101970005F4FEE0FFF1FE656FD4F440F551FDA0174
:10198000A656BD4F40815181ED91FC91E417F507BA
:1019900008F01ACE6F5F7F4F019764307105C9F66A
:1019A00080919304882321F081E0809393040CCEEE
:1019B00091E0909393042FB7F894809163039091F2
:1019C0006403A0916503B09166032FBF80939404D4
:1019D00090939504A0939604B09397044091980433
:1019E0005091990460919A0470919B046C017D015F
:1019F000C41AD50AE60AF70AB701A601809398042B
:101A000090939904A0939A04B0939B04E091700280
:101A100081E08E0F8093700224E0E29FF001112498
:101A2000E85BFD4F40835183628373838A3010F0FB
:101A30001092700280916C0290916D02A0916E02E2
:101A4000B0916F02892B8A2B8B2B09F4F0CEF80111
:101A500088E2C82E1192CA94E9F7E8E4F2E0D801CE
:101A600041915191619171914D935D936D937D93EE
:101A700022E0E037F207A1F789E090E0F80130E0DA
:101A800020E040815181628173812F5F3F4FC4808C
:101A9000D580E680F780C416D506E606F70640F442
:101AA000C082D182E282F382448355836683778346
:101AB0003496281739072CF3019701F78D8D9E8DE9
:101AC000AF8DB8A14D855E856F857889841B950B98
:101AD000A60BB70B87399105A105B10508F0A7CE74
:101AE000FE013D9620E030E0A90181919191A19104
:101AF000B191280F391F4A1F5B1F2E163F06A9F709
:101B0000F4CE2FEF3FEF4FE75FE7C701B6010E942A
:101B1000EA0F81110DC02FEF3FEF4FE75FE7C701DD
:101B2000B6010E94920E18161CF48CEF91E0DECDE7
:101B30002FEF3FEF4FE75FE4C701B6010E94780F38
:101B400018161CF480E092E0D1CD2FEF3FEF4FE765
:101B50005FECC701B6010E94920E87FDF3CF2AE029
:101B600037ED43EA5BE3C701B6010E94260E4B0145
:101B70005C010E94970E6B017C010E94C60E9B01C6
:101B8000AC01C501B4010E94250E4B015C014AE085
:101B9000C701B6010E94A2056EE281EE93E00E94A9
:101BA000D90120E030E040E251E4C501B4010E94D7
:101BB0007D0F4B015C010E94970E6B01F12CE12C13
:101BC0004AE0C701B6010E94A205C701B6010E9402
:101BD000C60E9B01AC01C501B4010E94250E20E098
:101BE00030E040E251E40E947D0F0E94970E90E0A9
:101BF00080E04AE00E94A2057BCDA1E21A2EAA1B3A
:101C0000BB1BFD010DC0AA1FBB1FEE1FFF1FA217AC
:101C1000B307E407F50720F0A21BB30BE40BF50BA9
:101C2000661F771F881F991F1A9469F76095709532
:101C3000809590959B01AC01BD01CF010895EE0FF9
:101C4000FF1F0590F491E02D09945058BB27AA2757
:101C50000E943D0E0C943E0F0E94300F38F00E94FF
:101C6000370F20F039F49F3F19F426F40C942D0F10
:101C70000EF4E095E7FB0C94270FE92F0E944F0F1D
:101C800058F3BA17620773078407950720F079F4B1
:101C9000A6F50C94710F0EF4E0950B2EBA2FA02D23
:101CA0000B01B90190010C01CA01A0011124FF2709
:101CB000591B99F0593F50F4503E68F11A16F04004
:101CC000A22F232F342F4427585FF3CF4695379503
:101CD0002795A795F0405395C9F77EF41F16BA0BC8
:101CE000620B730B840BBAF09150A1F0FF0FBB1F76
:101CF000661F771F881FC2F70EC0BA0F621F731FBF
:101D0000841F48F4879577956795B795F7959E3F1B
:101D100008F0B0CF9395880F08F09927EE0F9795AC
:101D2000879508950E94030F08F481E008950E94AA
:101D3000570F88F09F5798F0B92F9927B751B0F0F7
:101D4000E1F0660F771F881F991F1AF0BA95C9F73F
:101D500014C0B13091F00E94710FB1E008950C945D
:101D6000710F672F782F8827B85F39F0B93FCCF310
:101D7000869577956795B395D9F73EF490958095BC
:101D8000709561957F4F8F4F9F4F0895E89409C0DC
:101D900097FB3EF490958095709561957F4F8F4F9E
:101DA0009F4F9923A9F0F92F96E9BB279395F695B4
:101DB000879577956795B795F111F8CFFAF4BB0F32
:101DC00011F460FF1BC06F5F7F4F8F4F9F4F16C096
:101DD000882311F096E911C0772321F09EE8872F20
:101DE000762F05C0662371F096E8862F70E060E0DC
:101DF0002AF09A95660F771F881FDAF7880F969555
:101E0000879597F90895990F0008550FAA0BE0E8F8
:101E1000FEEF16161706E807F907C0F012161306AC
:101E2000E407F50798F0621B730B840B950B39F4EC
:101E30000A2661F0232B242B252B21F408950A2652
:101E400009F4A140A6958FEF811D811D089597F992
:101E50009F6780E870E060E008959FEF80EC089550
:101E600000240A9416161706180609060895002479
:101E70000A9412161306140605060895092E0394F3
:101E8000000C11F4882352F0BB0F40F4BF2B11F467
:101E900060FF04C06F5F7F4F8F4F9F4F089557FDC6
:101EA0009058440F551F59F05F3F71F04795880FC8
:101EB00097FB991F61F09F3F79F08795089512165F
:101EC00013061406551FF2CF4695F1DF08C016160B
:101ED00017061806991FF1CF8695710561050894BC
:101EE0000895E894BB2766277727CB0197F90895D3
:101EF0000E94030F08F48FEF08950E94900F0C9436
:101F00003E0F0E94300F38F00E94370F20F09523CB
:101F100011F00C94270F0C942D0F11240C94720FB8
:101F20000E944F0F70F3959FC1F3950F50E0551F1E
:101F3000629FF001729FBB27F00DB11D639FAA271E
:101F4000F00DB11DAA1F649F6627B00DA11D661F6D
:101F5000829F2227B00DA11D621F739FB00DA11D8E
:101F6000621F839FA00D611D221F749F3327A00D48
:101F7000611D231F849F600D211D822F762F6A2FE4
:101F800011249F5750409AF0F1F088234AF0EE0F49
:101F9000FF1FBB1F661F771F881F91505040A9F776
:101FA0009E3F510580F00C94270F0C94720F5F3FF9
:101FB000E4F3983ED4F3869577956795B795F795B2
:101FC000E7959F5FC1F7FE2B880F911D969587952A
:101FD00097F908950E94030F880B990B08950F93AA
:101FE0001F93CF93DF938230910510F482E090E04D
:101FF000E0919E04F0919F0430E020E0B0E0A0E08A
:10200000309799F42115310509F44AC0281B390B82
:1020100024303105D8F58A819B816115710589F1DC
:10202000FB0193838283FE0111C0408151810281B3
:10203000138148175907E0F04817590799F410978A
:1020400061F012960C93129713961C933296CF015F
:10205000DF91CF911F910F91089500939E041093EB
:102060009F04F4CF2115310551F04217530738F082
:10207000A901DB019A01BD01DF01F801C1CFEF0128
:10208000F9CF90939F0480939E04CDCFFE01E20F81
:10209000F31F819391932250310939832883D7CF3D
:1020A00020919C0430919D04232B41F42091020146
:1020B0003091030130939D0420939C0420910001F2
:1020C000309101012115310541F42DB73EB7409102
:1020D000040150910501241B350BE0919C04F09103
:1020E0009D04E217F307A0F42E1B3F0B28173907B6
:1020F00078F0AC014E5F5F4F2417350748F04E0F64
:102100005F1F50939D0440939C04819391939FCFB4
:10211000F0E0E0E09CCFCF93DF930097E9F0FC0183
:10212000329713821282A0919E04B0919F04ED0118
:1021300030E020E01097A1F420813181820F931FBD
:1021400020919C0430919D042817390709F061C043
:10215000F0939D04E0939C04DF91CF910895EA01F0
:10216000CE17DF07E8F54A815B819E0141155105D5
:10217000B1F7E901FB83EA8349915991C40FD51F57
:10218000EC17FD0761F4808191810296840F951F01
:10219000E90199838883828193819B838A83F0E01C
:1021A000E0E012968D919C9113970097B9F52D91CF
:1021B0003C911197CD010296820F931F20919C04B0
:1021C00030919D042817390739F6309751F5109250
:1021D0009F0410929E04B0939D04A0939C04BCCFD6
:1021E000D383C28340815181840F951FC817D907BB
:1021F00061F44E5F5F4F88819981480F591F518369
:1022000040838A819B81938382832115310509F064
:10221000B0CFF0939F04E0939E049ECFFD01DC01BC
:0C222000C0CF13821282D7CFF894FFCFFA
:10222C000000A004800000000000D9013901660103
:10223C00260297017501890100000000630536052F
:10224C0092050C052F051C050D050D0A0063686928
:10225C0070206964203A2000416363656C6572618B
:10226C0074696F6E3A0A00496E697469616C697AB7
:10227C006174696F6E206661696C65642C20706C8A
:10228C006561736520636865636B207468652063A2
:10229C006F6E6E656374696F6E20616E6420493277
:1022AC004320616464726573732073657474696E22
:1022BC00677300436F756C64206E6F742066696E73
:1022CC0064204452563236303500576169742066AA
:1022DC006F722076616C69642064617461202100E6
:1022EC004865617274526174653A00486561727434
:1022FC00526174653A4E554C4C00416363656C58A1
:10230C003A00416363656C593A00416363656C5AEA
:10231C003A0054656D703A006E616E00696E66002D
:04232C006F76660062
:00000001FF
